{
  "_format": "hh-sol-artifact-1",
  "contractName": "CourseRegistration",
  "sourceName": "contracts/CourseRegistration.sol",
  "abi": [
    {
      "inputs": [
        {
          "internalType": "address",
          "name": "_identityNFTAddress",
          "type": "address"
        },
        {
          "internalType": "address",
          "name": "_feePaymentAddress",
          "type": "address"
        }
      ],
      "stateMutability": "nonpayable",
      "type": "constructor"
    },
    {
      "inputs": [
        {
          "internalType": "address",
          "name": "owner",
          "type": "address"
        }
      ],
      "name": "OwnableInvalidOwner",
      "type": "error"
    },
    {
      "inputs": [
        {
          "internalType": "address",
          "name": "account",
          "type": "address"
        }
      ],
      "name": "OwnableUnauthorizedAccount",
      "type": "error"
    },
    {
      "anonymous": false,
      "inputs": [
        {
          "indexed": false,
          "internalType": "uint256",
          "name": "courseId",
          "type": "uint256"
        },
        {
          "indexed": false,
          "internalType": "string",
          "name": "courseName",
          "type": "string"
        }
      ],
      "name": "CourseAdded",
      "type": "event"
    },
    {
      "anonymous": false,
      "inputs": [
        {
          "indexed": true,
          "internalType": "address",
          "name": "previousOwner",
          "type": "address"
        },
        {
          "indexed": true,
          "internalType": "address",
          "name": "newOwner",
          "type": "address"
        }
      ],
      "name": "OwnershipTransferred",
      "type": "event"
    },
    {
      "anonymous": false,
      "inputs": [
        {
          "indexed": false,
          "internalType": "uint256",
          "name": "courseId",
          "type": "uint256"
        },
        {
          "indexed": false,
          "internalType": "address",
          "name": "student",
          "type": "address"
        }
      ],
      "name": "StudentRegistered",
      "type": "event"
    },
    {
      "inputs": [
        {
          "internalType": "string",
          "name": "courseName",
          "type": "string"
        }
      ],
      "name": "addCourse",
      "outputs": [],
      "stateMutability": "nonpayable",
      "type": "function"
    },
    {
      "inputs": [
        {
          "internalType": "uint256",
          "name": "",
          "type": "uint256"
        },
        {
          "internalType": "uint256",
          "name": "",
          "type": "uint256"
        }
      ],
      "name": "courseRegistrants",
      "outputs": [
        {
          "internalType": "address",
          "name": "",
          "type": "address"
        }
      ],
      "stateMutability": "view",
      "type": "function"
    },
    {
      "inputs": [
        {
          "internalType": "uint256",
          "name": "",
          "type": "uint256"
        }
      ],
      "name": "courses",
      "outputs": [
        {
          "internalType": "uint256",
          "name": "courseId",
          "type": "uint256"
        },
        {
          "internalType": "string",
          "name": "courseName",
          "type": "string"
        },
        {
          "internalType": "bool",
          "name": "isActive",
          "type": "bool"
        }
      ],
      "stateMutability": "view",
      "type": "function"
    },
    {
      "inputs": [],
      "name": "currentCourseId",
      "outputs": [
        {
          "internalType": "uint256",
          "name": "",
          "type": "uint256"
        }
      ],
      "stateMutability": "view",
      "type": "function"
    },
    {
      "inputs": [],
      "name": "feePayment",
      "outputs": [
        {
          "internalType": "contract IFeePayment",
          "name": "",
          "type": "address"
        }
      ],
      "stateMutability": "view",
      "type": "function"
    },
    {
      "inputs": [],
      "name": "identityNFT",
      "outputs": [
        {
          "internalType": "contract IIdentityNFT",
          "name": "",
          "type": "address"
        }
      ],
      "stateMutability": "view",
      "type": "function"
    },
    {
      "inputs": [],
      "name": "owner",
      "outputs": [
        {
          "internalType": "address",
          "name": "",
          "type": "address"
        }
      ],
      "stateMutability": "view",
      "type": "function"
    },
    {
      "inputs": [
        {
          "internalType": "uint256",
          "name": "courseId",
          "type": "uint256"
        }
      ],
      "name": "registerCourse",
      "outputs": [],
      "stateMutability": "nonpayable",
      "type": "function"
    },
    {
      "inputs": [],
      "name": "renounceOwnership",
      "outputs": [],
      "stateMutability": "nonpayable",
      "type": "function"
    },
    {
      "inputs": [
        {
          "internalType": "address",
          "name": "newOwner",
          "type": "address"
        }
      ],
      "name": "transferOwnership",
      "outputs": [],
      "stateMutability": "nonpayable",
      "type": "function"
    }
  ],
  "bytecode": "0x608060405234801561001057600080fd5b5060405161163c38038061163c83398181016040528101906100329190610265565b33600073ffffffffffffffffffffffffffffffffffffffff168173ffffffffffffffffffffffffffffffffffffffff16036100a55760006040517f1e4fbdf700000000000000000000000000000000000000000000000000000000815260040161009c91906102b4565b60405180910390fd5b6100b48161013e60201b60201c565b5081600160006101000a81548173ffffffffffffffffffffffffffffffffffffffff021916908373ffffffffffffffffffffffffffffffffffffffff16021790555080600260006101000a81548173ffffffffffffffffffffffffffffffffffffffff021916908373ffffffffffffffffffffffffffffffffffffffff16021790555050506102cf565b60008060009054906101000a900473ffffffffffffffffffffffffffffffffffffffff169050816000806101000a81548173ffffffffffffffffffffffffffffffffffffffff021916908373ffffffffffffffffffffffffffffffffffffffff1602179055508173ffffffffffffffffffffffffffffffffffffffff168173ffffffffffffffffffffffffffffffffffffffff167f8be0079c531659141344cd1fd0a4f28419497f9722a3daafe3b4186f6b6457e060405160405180910390a35050565b600080fd5b600073ffffffffffffffffffffffffffffffffffffffff82169050919050565b600061023282610207565b9050919050565b61024281610227565b811461024d57600080fd5b50565b60008151905061025f81610239565b92915050565b6000806040838503121561027c5761027b610202565b5b600061028a85828601610250565b925050602061029b85828601610250565b9150509250929050565b6102ae81610227565b82525050565b60006020820190506102c960008301846102a5565b92915050565b61135e806102de6000396000f3fe608060405234801561001057600080fd5b506004361061009e5760003560e01c8063715018a611610066578063715018a6146101475780638da5cb5b1461015157806396f979d21461016f578063ea06abce146101a1578063f2fde38b146101bf5761009e565b80632e554076146100a35780632f77f003146100bf57806333c7c026146100dd57806347ffc1ca146100fb578063701b3f9b14610117575b600080fd5b6100bd60048036038101906100b89190610a4c565b6101db565b005b6100c76102b1565b6040516100d49190610aae565b60405180910390f35b6100e56102b7565b6040516100f29190610b48565b60405180910390f35b61011560048036038101906101109190610b8f565b6102dd565b005b610131600480360381019061012c9190610bbc565b6105a9565b60405161013e9190610c1d565b60405180910390f35b61014f6105f7565b005b61015961060b565b6040516101669190610c1d565b60405180910390f35b61018960048036038101906101849190610b8f565b610634565b60405161019893929190610cd2565b60405180910390f35b6101a96106f3565b6040516101b69190610d31565b60405180910390f35b6101d960048036038101906101d49190610d78565b610719565b005b6101e361079f565b600460008154809291906101f690610dd4565b9190505550604051806060016040528060045481526020018281526020016001151581525060036000600454815260200190815260200160002060008201518160000155602082015181600101908161024f919061101e565b5060408201518160020160006101000a81548160ff0219169083151502179055509050507f4baff6e1d063f396c07ce2e85db23353a5b405879415449d8f2fcd54b8ede8f9600454826040516102a69291906110f0565b60405180910390a150565b60045481565b600260009054906101000a900473ffffffffffffffffffffffffffffffffffffffff1681565b6003600082815260200190815260200160002060020160009054906101000a900460ff16610340576040517f08c379a00000000000000000000000000000000000000000000000000000000081526004016103379061116c565b60405180910390fd5b6000600160009054906101000a900473ffffffffffffffffffffffffffffffffffffffff1673ffffffffffffffffffffffffffffffffffffffff166391f1075d336040518263ffffffff1660e01b815260040161039d9190610c1d565b602060405180830381865afa1580156103ba573d6000803e3d6000fd5b505050506040513d601f19601f820116820180604052508101906103de91906111a1565b0361041e576040517f08c379a00000000000000000000000000000000000000000000000000000000081526004016104159061121a565b60405180910390fd5b600260009054906101000a900473ffffffffffffffffffffffffffffffffffffffff1673ffffffffffffffffffffffffffffffffffffffff1663635e2980336040518263ffffffff1660e01b81526004016104799190610c1d565b602060405180830381865afa158015610496573d6000803e3d6000fd5b505050506040513d601f19601f820116820180604052508101906104ba9190611266565b6104f9576040517f08c379a00000000000000000000000000000000000000000000000000000000081526004016104f0906112df565b60405180910390fd5b60056000828152602001908152602001600020339080600181540180825580915050600190039060005260206000200160009091909190916101000a81548173ffffffffffffffffffffffffffffffffffffffff021916908373ffffffffffffffffffffffffffffffffffffffff1602179055507fc65c83424b9743cd85950d4d05ef8ab686409eafe1bf490c528b98f4eb800048813360405161059e9291906112ff565b60405180910390a150565b600560205281600052604060002081815481106105c557600080fd5b906000526020600020016000915091509054906101000a900473ffffffffffffffffffffffffffffffffffffffff1681565b6105ff61079f565b6106096000610826565b565b60008060009054906101000a900473ffffffffffffffffffffffffffffffffffffffff16905090565b600360205280600052604060002060009150905080600001549080600101805461065d90610e4b565b80601f016020809104026020016040519081016040528092919081815260200182805461068990610e4b565b80156106d65780601f106106ab576101008083540402835291602001916106d6565b820191906000526020600020905b8154815290600101906020018083116106b957829003601f168201915b5050505050908060020160009054906101000a900460ff16905083565b600160009054906101000a900473ffffffffffffffffffffffffffffffffffffffff1681565b61072161079f565b600073ffffffffffffffffffffffffffffffffffffffff168173ffffffffffffffffffffffffffffffffffffffff16036107935760006040517f1e4fbdf700000000000000000000000000000000000000000000000000000000815260040161078a9190610c1d565b60405180910390fd5b61079c81610826565b50565b6107a76108ea565b73ffffffffffffffffffffffffffffffffffffffff166107c561060b565b73ffffffffffffffffffffffffffffffffffffffff1614610824576107e86108ea565b6040517f118cdaa700000000000000000000000000000000000000000000000000000000815260040161081b9190610c1d565b60405180910390fd5b565b60008060009054906101000a900473ffffffffffffffffffffffffffffffffffffffff169050816000806101000a81548173ffffffffffffffffffffffffffffffffffffffff021916908373ffffffffffffffffffffffffffffffffffffffff1602179055508173ffffffffffffffffffffffffffffffffffffffff168173ffffffffffffffffffffffffffffffffffffffff167f8be0079c531659141344cd1fd0a4f28419497f9722a3daafe3b4186f6b6457e060405160405180910390a35050565b600033905090565b6000604051905090565b600080fd5b600080fd5b600080fd5b600080fd5b6000601f19601f8301169050919050565b7f4e487b7100000000000000000000000000000000000000000000000000000000600052604160045260246000fd5b61095982610910565b810181811067ffffffffffffffff8211171561097857610977610921565b5b80604052505050565b600061098b6108f2565b90506109978282610950565b919050565b600067ffffffffffffffff8211156109b7576109b6610921565b5b6109c082610910565b9050602081019050919050565b82818337600083830152505050565b60006109ef6109ea8461099c565b610981565b905082815260208101848484011115610a0b57610a0a61090b565b5b610a168482856109cd565b509392505050565b600082601f830112610a3357610a32610906565b5b8135610a438482602086016109dc565b91505092915050565b600060208284031215610a6257610a616108fc565b5b600082013567ffffffffffffffff811115610a8057610a7f610901565b5b610a8c84828501610a1e565b91505092915050565b6000819050919050565b610aa881610a95565b82525050565b6000602082019050610ac36000830184610a9f565b92915050565b600073ffffffffffffffffffffffffffffffffffffffff82169050919050565b6000819050919050565b6000610b0e610b09610b0484610ac9565b610ae9565b610ac9565b9050919050565b6000610b2082610af3565b9050919050565b6000610b3282610b15565b9050919050565b610b4281610b27565b82525050565b6000602082019050610b5d6000830184610b39565b92915050565b610b6c81610a95565b8114610b7757600080fd5b50565b600081359050610b8981610b63565b92915050565b600060208284031215610ba557610ba46108fc565b5b6000610bb384828501610b7a565b91505092915050565b60008060408385031215610bd357610bd26108fc565b5b6000610be185828601610b7a565b9250506020610bf285828601610b7a565b9150509250929050565b6000610c0782610ac9565b9050919050565b610c1781610bfc565b82525050565b6000602082019050610c326000830184610c0e565b92915050565b600081519050919050565b600082825260208201905092915050565b60005b83811015610c72578082015181840152602081019050610c57565b60008484015250505050565b6000610c8982610c38565b610c938185610c43565b9350610ca3818560208601610c54565b610cac81610910565b840191505092915050565b60008115159050919050565b610ccc81610cb7565b82525050565b6000606082019050610ce76000830186610a9f565b8181036020830152610cf98185610c7e565b9050610d086040830184610cc3565b949350505050565b6000610d1b82610b15565b9050919050565b610d2b81610d10565b82525050565b6000602082019050610d466000830184610d22565b92915050565b610d5581610bfc565b8114610d6057600080fd5b50565b600081359050610d7281610d4c565b92915050565b600060208284031215610d8e57610d8d6108fc565b5b6000610d9c84828501610d63565b91505092915050565b7f4e487b7100000000000000000000000000000000000000000000000000000000600052601160045260246000fd5b6000610ddf82610a95565b91507fffffffffffffffffffffffffffffffffffffffffffffffffffffffffffffffff8203610e1157610e10610da5565b5b600182019050919050565b7f4e487b7100000000000000000000000000000000000000000000000000000000600052602260045260246000fd5b60006002820490506001821680610e6357607f821691505b602082108103610e7657610e75610e1c565b5b50919050565b60008190508160005260206000209050919050565b60006020601f8301049050919050565b600082821b905092915050565b600060088302610ede7fffffffffffffffffffffffffffffffffffffffffffffffffffffffffffffffff82610ea1565b610ee88683610ea1565b95508019841693508086168417925050509392505050565b6000610f1b610f16610f1184610a95565b610ae9565b610a95565b9050919050565b6000819050919050565b610f3583610f00565b610f49610f4182610f22565b848454610eae565b825550505050565b600090565b610f5e610f51565b610f69818484610f2c565b505050565b5b81811015610f8d57610f82600082610f56565b600181019050610f6f565b5050565b601f821115610fd257610fa381610e7c565b610fac84610e91565b81016020851015610fbb578190505b610fcf610fc785610e91565b830182610f6e565b50505b505050565b600082821c905092915050565b6000610ff560001984600802610fd7565b1980831691505092915050565b600061100e8383610fe4565b9150826002028217905092915050565b61102782610c38565b67ffffffffffffffff8111156110405761103f610921565b5b61104a8254610e4b565b611055828285610f91565b600060209050601f8311600181146110885760008415611076578287015190505b6110808582611002565b8655506110e8565b601f19841661109686610e7c565b60005b828110156110be57848901518255600182019150602085019450602081019050611099565b868310156110db57848901516110d7601f891682610fe4565b8355505b6001600288020188555050505b505050505050565b60006040820190506111056000830185610a9f565b81810360208301526111178184610c7e565b90509392505050565b7f436f75727365206973206e6f7420616374697665000000000000000000000000600082015250565b6000611156601483610c43565b915061116182611120565b602082019050919050565b6000602082019050818103600083015261118581611149565b9050919050565b60008151905061119b81610b63565b92915050565b6000602082840312156111b7576111b66108fc565b5b60006111c58482850161118c565b91505092915050565b7f4e6f2076616c6964204964656e74697479204e465420666f756e640000000000600082015250565b6000611204601b83610c43565b915061120f826111ce565b602082019050919050565b60006020820190508181036000830152611233816111f7565b9050919050565b61124381610cb7565b811461124e57600080fd5b50565b6000815190506112608161123a565b92915050565b60006020828403121561127c5761127b6108fc565b5b600061128a84828501611251565b91505092915050565b7f466565206e6f7420706169640000000000000000000000000000000000000000600082015250565b60006112c9600c83610c43565b91506112d482611293565b602082019050919050565b600060208201905081810360008301526112f8816112bc565b9050919050565b60006040820190506113146000830185610a9f565b6113216020830184610c0e565b939250505056fea2646970667358221220068c1dc115bf73afc318cad5217c8804dc539814a6eba05ec037ecf092dc286464736f6c634300081c0033",
  "linkReferences": {},
  "deployedLinkReferences": {}
}