{
  "_format": "hh-sol-artifact-1",
  "contractName": "CertificateNFT",
  "sourceName": "contracts/CertificateNFT.sol",
  "abi": [
    {
      "inputs": [],
      "stateMutability": "nonpayable",
      "type": "constructor"
    },
    {
      "inputs": [
        {
          "internalType": "address",
          "name": "sender",
          "type": "address"
        },
        {
          "internalType": "uint256",
          "name": "tokenId",
          "type": "uint256"
        },
        {
          "internalType": "address",
          "name": "owner",
          "type": "address"
        }
      ],
      "name": "ERC721IncorrectOwner",
      "type": "error"
    },
    {
      "inputs": [
        {
          "internalType": "address",
          "name": "operator",
          "type": "address"
        },
        {
          "internalType": "uint256",
          "name": "tokenId",
          "type": "uint256"
        }
      ],
      "name": "ERC721InsufficientApproval",
      "type": "error"
    },
    {
      "inputs": [
        {
          "internalType": "address",
          "name": "approver",
          "type": "address"
        }
      ],
      "name": "ERC721InvalidApprover",
      "type": "error"
    },
    {
      "inputs": [
        {
          "internalType": "address",
          "name": "operator",
          "type": "address"
        }
      ],
      "name": "ERC721InvalidOperator",
      "type": "error"
    },
    {
      "inputs": [
        {
          "internalType": "address",
          "name": "owner",
          "type": "address"
        }
      ],
      "name": "ERC721InvalidOwner",
      "type": "error"
    },
    {
      "inputs": [
        {
          "internalType": "address",
          "name": "receiver",
          "type": "address"
        }
      ],
      "name": "ERC721InvalidReceiver",
      "type": "error"
    },
    {
      "inputs": [
        {
          "internalType": "address",
          "name": "sender",
          "type": "address"
        }
      ],
      "name": "ERC721InvalidSender",
      "type": "error"
    },
    {
      "inputs": [
        {
          "internalType": "uint256",
          "name": "tokenId",
          "type": "uint256"
        }
      ],
      "name": "ERC721NonexistentToken",
      "type": "error"
    },
    {
      "inputs": [
        {
          "internalType": "address",
          "name": "owner",
          "type": "address"
        }
      ],
      "name": "OwnableInvalidOwner",
      "type": "error"
    },
    {
      "inputs": [
        {
          "internalType": "address",
          "name": "account",
          "type": "address"
        }
      ],
      "name": "OwnableUnauthorizedAccount",
      "type": "error"
    },
    {
      "anonymous": false,
      "inputs": [
        {
          "indexed": true,
          "internalType": "address",
          "name": "owner",
          "type": "address"
        },
        {
          "indexed": true,
          "internalType": "address",
          "name": "approved",
          "type": "address"
        },
        {
          "indexed": true,
          "internalType": "uint256",
          "name": "tokenId",
          "type": "uint256"
        }
      ],
      "name": "Approval",
      "type": "event"
    },
    {
      "anonymous": false,
      "inputs": [
        {
          "indexed": true,
          "internalType": "address",
          "name": "owner",
          "type": "address"
        },
        {
          "indexed": true,
          "internalType": "address",
          "name": "operator",
          "type": "address"
        },
        {
          "indexed": false,
          "internalType": "bool",
          "name": "approved",
          "type": "bool"
        }
      ],
      "name": "ApprovalForAll",
      "type": "event"
    },
    {
      "anonymous": false,
      "inputs": [
        {
          "indexed": false,
          "internalType": "uint256",
          "name": "certificateId",
          "type": "uint256"
        },
        {
          "indexed": false,
          "internalType": "address",
          "name": "to",
          "type": "address"
        },
        {
          "indexed": false,
          "internalType": "uint256",
          "name": "courseId",
          "type": "uint256"
        },
        {
          "indexed": false,
          "internalType": "string",
          "name": "certificateType",
          "type": "string"
        }
      ],
      "name": "CertificateIssued",
      "type": "event"
    },
    {
      "anonymous": false,
      "inputs": [
        {
          "indexed": true,
          "internalType": "address",
          "name": "previousOwner",
          "type": "address"
        },
        {
          "indexed": true,
          "internalType": "address",
          "name": "newOwner",
          "type": "address"
        }
      ],
      "name": "OwnershipTransferred",
      "type": "event"
    },
    {
      "anonymous": false,
      "inputs": [
        {
          "indexed": true,
          "internalType": "address",
          "name": "from",
          "type": "address"
        },
        {
          "indexed": true,
          "internalType": "address",
          "name": "to",
          "type": "address"
        },
        {
          "indexed": true,
          "internalType": "uint256",
          "name": "tokenId",
          "type": "uint256"
        }
      ],
      "name": "Transfer",
      "type": "event"
    },
    {
      "inputs": [
        {
          "internalType": "address",
          "name": "to",
          "type": "address"
        },
        {
          "internalType": "uint256",
          "name": "tokenId",
          "type": "uint256"
        }
      ],
      "name": "approve",
      "outputs": [],
      "stateMutability": "nonpayable",
      "type": "function"
    },
    {
      "inputs": [
        {
          "internalType": "address",
          "name": "owner",
          "type": "address"
        }
      ],
      "name": "balanceOf",
      "outputs": [
        {
          "internalType": "uint256",
          "name": "",
          "type": "uint256"
        }
      ],
      "stateMutability": "view",
      "type": "function"
    },
    {
      "inputs": [
        {
          "internalType": "uint256",
          "name": "",
          "type": "uint256"
        }
      ],
      "name": "certificates",
      "outputs": [
        {
          "internalType": "uint256",
          "name": "courseId",
          "type": "uint256"
        },
        {
          "internalType": "string",
          "name": "certificateType",
          "type": "string"
        },
        {
          "internalType": "string",
          "name": "ipfsFileId",
          "type": "string"
        }
      ],
      "stateMutability": "view",
      "type": "function"
    },
    {
      "inputs": [],
      "name": "currentCertificateId",
      "outputs": [
        {
          "internalType": "uint256",
          "name": "",
          "type": "uint256"
        }
      ],
      "stateMutability": "view",
      "type": "function"
    },
    {
      "inputs": [
        {
          "internalType": "uint256",
          "name": "tokenId",
          "type": "uint256"
        }
      ],
      "name": "getApproved",
      "outputs": [
        {
          "internalType": "address",
          "name": "",
          "type": "address"
        }
      ],
      "stateMutability": "view",
      "type": "function"
    },
    {
      "inputs": [
        {
          "internalType": "address",
          "name": "owner",
          "type": "address"
        },
        {
          "internalType": "address",
          "name": "operator",
          "type": "address"
        }
      ],
      "name": "isApprovedForAll",
      "outputs": [
        {
          "internalType": "bool",
          "name": "",
          "type": "bool"
        }
      ],
      "stateMutability": "view",
      "type": "function"
    },
    {
      "inputs": [
        {
          "internalType": "address",
          "name": "to",
          "type": "address"
        },
        {
          "internalType": "uint256",
          "name": "courseId",
          "type": "uint256"
        },
        {
          "internalType": "string",
          "name": "certificateType",
          "type": "string"
        },
        {
          "internalType": "string",
          "name": "ipfsFileId",
          "type": "string"
        }
      ],
      "name": "mintCertificate",
      "outputs": [
        {
          "internalType": "uint256",
          "name": "",
          "type": "uint256"
        }
      ],
      "stateMutability": "nonpayable",
      "type": "function"
    },
    {
      "inputs": [],
      "name": "name",
      "outputs": [
        {
          "internalType": "string",
          "name": "",
          "type": "string"
        }
      ],
      "stateMutability": "view",
      "type": "function"
    },
    {
      "inputs": [],
      "name": "owner",
      "outputs": [
        {
          "internalType": "address",
          "name": "",
          "type": "address"
        }
      ],
      "stateMutability": "view",
      "type": "function"
    },
    {
      "inputs": [
        {
          "internalType": "uint256",
          "name": "tokenId",
          "type": "uint256"
        }
      ],
      "name": "ownerOf",
      "outputs": [
        {
          "internalType": "address",
          "name": "",
          "type": "address"
        }
      ],
      "stateMutability": "view",
      "type": "function"
    },
    {
      "inputs": [],
      "name": "renounceOwnership",
      "outputs": [],
      "stateMutability": "nonpayable",
      "type": "function"
    },
    {
      "inputs": [
        {
          "internalType": "address",
          "name": "from",
          "type": "address"
        },
        {
          "internalType": "address",
          "name": "to",
          "type": "address"
        },
        {
          "internalType": "uint256",
          "name": "tokenId",
          "type": "uint256"
        }
      ],
      "name": "safeTransferFrom",
      "outputs": [],
      "stateMutability": "nonpayable",
      "type": "function"
    },
    {
      "inputs": [
        {
          "internalType": "address",
          "name": "from",
          "type": "address"
        },
        {
          "internalType": "address",
          "name": "to",
          "type": "address"
        },
        {
          "internalType": "uint256",
          "name": "tokenId",
          "type": "uint256"
        },
        {
          "internalType": "bytes",
          "name": "data",
          "type": "bytes"
        }
      ],
      "name": "safeTransferFrom",
      "outputs": [],
      "stateMutability": "nonpayable",
      "type": "function"
    },
    {
      "inputs": [
        {
          "internalType": "address",
          "name": "operator",
          "type": "address"
        },
        {
          "internalType": "bool",
          "name": "approved",
          "type": "bool"
        }
      ],
      "name": "setApprovalForAll",
      "outputs": [],
      "stateMutability": "nonpayable",
      "type": "function"
    },
    {
      "inputs": [
        {
          "internalType": "bytes4",
          "name": "interfaceId",
          "type": "bytes4"
        }
      ],
      "name": "supportsInterface",
      "outputs": [
        {
          "internalType": "bool",
          "name": "",
          "type": "bool"
        }
      ],
      "stateMutability": "view",
      "type": "function"
    },
    {
      "inputs": [],
      "name": "symbol",
      "outputs": [
        {
          "internalType": "string",
          "name": "",
          "type": "string"
        }
      ],
      "stateMutability": "view",
      "type": "function"
    },
    {
      "inputs": [
        {
          "internalType": "uint256",
          "name": "tokenId",
          "type": "uint256"
        }
      ],
      "name": "tokenURI",
      "outputs": [
        {
          "internalType": "string",
          "name": "",
          "type": "string"
        }
      ],
      "stateMutability": "view",
      "type": "function"
    },
    {
      "inputs": [
        {
          "internalType": "address",
          "name": "from",
          "type": "address"
        },
        {
          "internalType": "address",
          "name": "to",
          "type": "address"
        },
        {
          "internalType": "uint256",
          "name": "tokenId",
          "type": "uint256"
        }
      ],
      "name": "transferFrom",
      "outputs": [],
      "stateMutability": "nonpayable",
      "type": "function"
    },
    {
      "inputs": [
        {
          "internalType": "address",
          "name": "newOwner",
          "type": "address"
        }
      ],
      "name": "transferOwnership",
      "outputs": [],
      "stateMutability": "nonpayable",
      "type": "function"
    }
  ],
  "bytecode": "0x608060405234801561001057600080fd5b50336040518060400160405280601581526020017f49495444686172776164436572746966696361746500000000000000000000008152506040518060400160405280600981526020017f494954442d434552540000000000000000000000000000000000000000000000815250816000908161008d919061043d565b50806001908161009d919061043d565b505050600073ffffffffffffffffffffffffffffffffffffffff168173ffffffffffffffffffffffffffffffffffffffff16036101125760006040517f1e4fbdf70000000000000000000000000000000000000000000000000000000081526004016101099190610550565b60405180910390fd5b6101218161012760201b60201c565b5061056b565b6000600660009054906101000a900473ffffffffffffffffffffffffffffffffffffffff16905081600660006101000a81548173ffffffffffffffffffffffffffffffffffffffff021916908373ffffffffffffffffffffffffffffffffffffffff1602179055508173ffffffffffffffffffffffffffffffffffffffff168173ffffffffffffffffffffffffffffffffffffffff167f8be0079c531659141344cd1fd0a4f28419497f9722a3daafe3b4186f6b6457e060405160405180910390a35050565b600081519050919050565b7f4e487b7100000000000000000000000000000000000000000000000000000000600052604160045260246000fd5b7f4e487b7100000000000000000000000000000000000000000000000000000000600052602260045260246000fd5b6000600282049050600182168061026e57607f821691505b60208210810361028157610280610227565b5b50919050565b60008190508160005260206000209050919050565b60006020601f8301049050919050565b600082821b905092915050565b6000600883026102e97fffffffffffffffffffffffffffffffffffffffffffffffffffffffffffffffff826102ac565b6102f386836102ac565b95508019841693508086168417925050509392505050565b6000819050919050565b6000819050919050565b600061033a6103356103308461030b565b610315565b61030b565b9050919050565b6000819050919050565b6103548361031f565b61036861036082610341565b8484546102b9565b825550505050565b600090565b61037d610370565b61038881848461034b565b505050565b5b818110156103ac576103a1600082610375565b60018101905061038e565b5050565b601f8211156103f1576103c281610287565b6103cb8461029c565b810160208510156103da578190505b6103ee6103e68561029c565b83018261038d565b50505b505050565b600082821c905092915050565b6000610414600019846008026103f6565b1980831691505092915050565b600061042d8383610403565b9150826002028217905092915050565b610446826101ed565b67ffffffffffffffff81111561045f5761045e6101f8565b5b6104698254610256565b6104748282856103b0565b600060209050601f8311600181146104a75760008415610495578287015190505b61049f8582610421565b865550610507565b601f1984166104b586610287565b60005b828110156104dd578489015182556001820191506020850194506020810190506104b8565b868310156104fa57848901516104f6601f891682610403565b8355505b6001600288020188555050505b505050505050565b600073ffffffffffffffffffffffffffffffffffffffff82169050919050565b600061053a8261050f565b9050919050565b61054a8161052f565b82525050565b60006020820190506105656000830184610541565b92915050565b6127808061057a6000396000f3fe608060405234801561001057600080fd5b50600436106101205760003560e01c806370a08231116100ad578063a22cb46511610071578063a22cb4651461031d578063b88d4fde14610339578063c87b56dd14610355578063e985e9c514610385578063f2fde38b146103b557610120565b806370a0823114610277578063715018a6146102a75780638da5cb5b146102b15780638fefd32b146102cf57806395d89b41146102ff57610120565b8063095ea7b3116100f4578063095ea7b3146101c157806323b872dd146101dd57806342842e0e146101f95780636352211e14610215578063663b3e221461024557610120565b80622d081e1461012557806301ffc9a71461014357806306fdde0314610173578063081812fc14610191575b600080fd5b61012d6103d1565b60405161013a9190611ab1565b60405180910390f35b61015d60048036038101906101589190611b38565b6103d7565b60405161016a9190611b80565b60405180910390f35b61017b6104b9565b6040516101889190611c2b565b60405180910390f35b6101ab60048036038101906101a69190611c79565b61054b565b6040516101b89190611ce7565b60405180910390f35b6101db60048036038101906101d69190611d2e565b610567565b005b6101f760048036038101906101f29190611d6e565b61057d565b005b610213600480360381019061020e9190611d6e565b61067f565b005b61022f600480360381019061022a9190611c79565b61069f565b60405161023c9190611ce7565b60405180910390f35b61025f600480360381019061025a9190611c79565b6106b1565b60405161026e93929190611dc1565b60405180910390f35b610291600480360381019061028c9190611e06565b6107eb565b60405161029e9190611ab1565b60405180910390f35b6102af6108a5565b005b6102b96108b9565b6040516102c69190611ce7565b60405180910390f35b6102e960048036038101906102e49190611f68565b6108e3565b6040516102f69190611ab1565b60405180910390f35b6103076109c0565b6040516103149190611c2b565b60405180910390f35b61033760048036038101906103329190612033565b610a52565b005b610353600480360381019061034e9190612114565b610a68565b005b61036f600480360381019061036a9190611c79565b610a8d565b60405161037c9190611c2b565b60405180910390f35b61039f600480360381019061039a9190612197565b610af6565b6040516103ac9190611b80565b60405180910390f35b6103cf60048036038101906103ca9190611e06565b610b8a565b005b60075481565b60007f80ac58cd000000000000000000000000000000000000000000000000000000007bffffffffffffffffffffffffffffffffffffffffffffffffffffffff1916827bffffffffffffffffffffffffffffffffffffffffffffffffffffffff191614806104a257507f5b5e139f000000000000000000000000000000000000000000000000000000007bffffffffffffffffffffffffffffffffffffffffffffffffffffffff1916827bffffffffffffffffffffffffffffffffffffffffffffffffffffffff1916145b806104b257506104b182610c10565b5b9050919050565b6060600080546104c890612206565b80601f01602080910402602001604051908101604052809291908181526020018280546104f490612206565b80156105415780601f1061051657610100808354040283529160200191610541565b820191906000526020600020905b81548152906001019060200180831161052457829003601f168201915b5050505050905090565b600061055682610c7a565b5061056082610d02565b9050919050565b6105798282610574610d3f565b610d47565b5050565b600073ffffffffffffffffffffffffffffffffffffffff168273ffffffffffffffffffffffffffffffffffffffff16036105ef5760006040517f64a0ae920000000000000000000000000000000000000000000000000000000081526004016105e69190611ce7565b60405180910390fd5b600061060383836105fe610d3f565b610d59565b90508373ffffffffffffffffffffffffffffffffffffffff168173ffffffffffffffffffffffffffffffffffffffff1614610679578382826040517f64283d7b00000000000000000000000000000000000000000000000000000000815260040161067093929190612237565b60405180910390fd5b50505050565b61069a83838360405180602001604052806000815250610a68565b505050565b60006106aa82610c7a565b9050919050565b60086020528060005260406000206000915090508060000154908060010180546106da90612206565b80601f016020809104026020016040519081016040528092919081815260200182805461070690612206565b80156107535780601f1061072857610100808354040283529160200191610753565b820191906000526020600020905b81548152906001019060200180831161073657829003601f168201915b50505050509080600201805461076890612206565b80601f016020809104026020016040519081016040528092919081815260200182805461079490612206565b80156107e15780601f106107b6576101008083540402835291602001916107e1565b820191906000526020600020905b8154815290600101906020018083116107c457829003601f168201915b5050505050905083565b60008073ffffffffffffffffffffffffffffffffffffffff168273ffffffffffffffffffffffffffffffffffffffff160361085e5760006040517f89c62b640000000000000000000000000000000000000000000000000000000081526004016108559190611ce7565b60405180910390fd5b600360008373ffffffffffffffffffffffffffffffffffffffff1673ffffffffffffffffffffffffffffffffffffffff168152602001908152602001600020549050919050565b6108ad610f73565b6108b76000610ffa565b565b6000600660009054906101000a900473ffffffffffffffffffffffffffffffffffffffff16905090565b60006108ed610f73565b60006007600081546108fe9061229d565b919050819055905061091086826110c0565b6040518060600160405280868152602001858152602001848152506008600083815260200190815260200160002060008201518160000155602082015181600101908161095d9190612491565b5060408201518160020190816109739190612491565b509050507f70e9dd7b2d7680ff10a6b1f6b97fe2e9888eb3098a9e2ee66104994c8c751adc818787876040516109ac9493929190612563565b60405180910390a180915050949350505050565b6060600180546109cf90612206565b80601f01602080910402602001604051908101604052809291908181526020018280546109fb90612206565b8015610a485780601f10610a1d57610100808354040283529160200191610a48565b820191906000526020600020905b815481529060010190602001808311610a2b57829003601f168201915b5050505050905090565b610a64610a5d610d3f565b83836111b9565b5050565b610a7384848461057d565b610a87610a7e610d3f565b85858585611328565b50505050565b6060610a9882610c7a565b506000610aa36114d9565b90506000815111610ac35760405180602001604052806000815250610aee565b80610acd846114f0565b604051602001610ade9291906125eb565b6040516020818303038152906040525b915050919050565b6000600560008473ffffffffffffffffffffffffffffffffffffffff1673ffffffffffffffffffffffffffffffffffffffff16815260200190815260200160002060008373ffffffffffffffffffffffffffffffffffffffff1673ffffffffffffffffffffffffffffffffffffffff16815260200190815260200160002060009054906101000a900460ff16905092915050565b610b92610f73565b600073ffffffffffffffffffffffffffffffffffffffff168173ffffffffffffffffffffffffffffffffffffffff1603610c045760006040517f1e4fbdf7000000000000000000000000000000000000000000000000000000008152600401610bfb9190611ce7565b60405180910390fd5b610c0d81610ffa565b50565b60007f01ffc9a7000000000000000000000000000000000000000000000000000000007bffffffffffffffffffffffffffffffffffffffffffffffffffffffff1916827bffffffffffffffffffffffffffffffffffffffffffffffffffffffff1916149050919050565b600080610c86836115be565b9050600073ffffffffffffffffffffffffffffffffffffffff168173ffffffffffffffffffffffffffffffffffffffff1603610cf957826040517f7e273289000000000000000000000000000000000000000000000000000000008152600401610cf09190611ab1565b60405180910390fd5b80915050919050565b60006004600083815260200190815260200160002060009054906101000a900473ffffffffffffffffffffffffffffffffffffffff169050919050565b600033905090565b610d5483838360016115fb565b505050565b600080610d65846115be565b9050600073ffffffffffffffffffffffffffffffffffffffff168373ffffffffffffffffffffffffffffffffffffffff1614610da757610da68184866117c0565b5b600073ffffffffffffffffffffffffffffffffffffffff168173ffffffffffffffffffffffffffffffffffffffff1614610e3857610de96000856000806115fb565b6001600360008373ffffffffffffffffffffffffffffffffffffffff1673ffffffffffffffffffffffffffffffffffffffff168152602001908152602001600020600082825403925050819055505b600073ffffffffffffffffffffffffffffffffffffffff168573ffffffffffffffffffffffffffffffffffffffff1614610ebb576001600360008773ffffffffffffffffffffffffffffffffffffffff1673ffffffffffffffffffffffffffffffffffffffff168152602001908152602001600020600082825401925050819055505b846002600086815260200190815260200160002060006101000a81548173ffffffffffffffffffffffffffffffffffffffff021916908373ffffffffffffffffffffffffffffffffffffffff160217905550838573ffffffffffffffffffffffffffffffffffffffff168273ffffffffffffffffffffffffffffffffffffffff167fddf252ad1be2c89b69c2b068fc378daa952ba7f163c4a11628f55a4df523b3ef60405160405180910390a4809150509392505050565b610f7b610d3f565b73ffffffffffffffffffffffffffffffffffffffff16610f996108b9565b73ffffffffffffffffffffffffffffffffffffffff1614610ff857610fbc610d3f565b6040517f118cdaa7000000000000000000000000000000000000000000000000000000008152600401610fef9190611ce7565b60405180910390fd5b565b6000600660009054906101000a900473ffffffffffffffffffffffffffffffffffffffff16905081600660006101000a81548173ffffffffffffffffffffffffffffffffffffffff021916908373ffffffffffffffffffffffffffffffffffffffff1602179055508173ffffffffffffffffffffffffffffffffffffffff168173ffffffffffffffffffffffffffffffffffffffff167f8be0079c531659141344cd1fd0a4f28419497f9722a3daafe3b4186f6b6457e060405160405180910390a35050565b600073ffffffffffffffffffffffffffffffffffffffff168273ffffffffffffffffffffffffffffffffffffffff16036111325760006040517f64a0ae920000000000000000000000000000000000000000000000000000000081526004016111299190611ce7565b60405180910390fd5b600061114083836000610d59565b9050600073ffffffffffffffffffffffffffffffffffffffff168173ffffffffffffffffffffffffffffffffffffffff16146111b45760006040517f73c6ac6e0000000000000000000000000000000000000000000000000000000081526004016111ab9190611ce7565b60405180910390fd5b505050565b600073ffffffffffffffffffffffffffffffffffffffff168273ffffffffffffffffffffffffffffffffffffffff160361122a57816040517f5b08ba180000000000000000000000000000000000000000000000000000000081526004016112219190611ce7565b60405180910390fd5b80600560008573ffffffffffffffffffffffffffffffffffffffff1673ffffffffffffffffffffffffffffffffffffffff16815260200190815260200160002060008473ffffffffffffffffffffffffffffffffffffffff1673ffffffffffffffffffffffffffffffffffffffff16815260200190815260200160002060006101000a81548160ff0219169083151502179055508173ffffffffffffffffffffffffffffffffffffffff168373ffffffffffffffffffffffffffffffffffffffff167f17307eab39ab6107e8899845ad3d59bd9653f200f220920489ca2b5937696c318360405161131b9190611b80565b60405180910390a3505050565b60008373ffffffffffffffffffffffffffffffffffffffff163b11156114d2578273ffffffffffffffffffffffffffffffffffffffff1663150b7a02868685856040518563ffffffff1660e01b81526004016113879493929190612664565b6020604051808303816000875af19250505080156113c357506040513d601f19601f820116820180604052508101906113c091906126c5565b60015b611447573d80600081146113f3576040519150601f19603f3d011682016040523d82523d6000602084013e6113f8565b606091505b50600081510361143f57836040517f64a0ae920000000000000000000000000000000000000000000000000000000081526004016114369190611ce7565b60405180910390fd5b805181602001fd5b63150b7a0260e01b7bffffffffffffffffffffffffffffffffffffffffffffffffffffffff1916817bffffffffffffffffffffffffffffffffffffffffffffffffffffffff1916146114d057836040517f64a0ae920000000000000000000000000000000000000000000000000000000081526004016114c79190611ce7565b60405180910390fd5b505b5050505050565b606060405180602001604052806000815250905090565b6060600060016114ff84611884565b01905060008167ffffffffffffffff81111561151e5761151d611e3d565b5b6040519080825280601f01601f1916602001820160405280156115505781602001600182028036833780820191505090505b509050600082602001820190505b6001156115b3578080600190039150507f3031323334353637383961626364656600000000000000000000000000000000600a86061a8153600a85816115a7576115a66126f2565b5b0494506000850361155e575b819350505050919050565b60006002600083815260200190815260200160002060009054906101000a900473ffffffffffffffffffffffffffffffffffffffff169050919050565b80806116345750600073ffffffffffffffffffffffffffffffffffffffff168273ffffffffffffffffffffffffffffffffffffffff1614155b1561176857600061164484610c7a565b9050600073ffffffffffffffffffffffffffffffffffffffff168373ffffffffffffffffffffffffffffffffffffffff16141580156116af57508273ffffffffffffffffffffffffffffffffffffffff168173ffffffffffffffffffffffffffffffffffffffff1614155b80156116c257506116c08184610af6565b155b1561170457826040517fa9fbf51f0000000000000000000000000000000000000000000000000000000081526004016116fb9190611ce7565b60405180910390fd5b811561176657838573ffffffffffffffffffffffffffffffffffffffff168273ffffffffffffffffffffffffffffffffffffffff167f8c5be1e5ebec7d5bd14f71427d1e84f3dd0314c0f7b2291e5b200ac8c7c3b92560405160405180910390a45b505b836004600085815260200190815260200160002060006101000a81548173ffffffffffffffffffffffffffffffffffffffff021916908373ffffffffffffffffffffffffffffffffffffffff16021790555050505050565b6117cb8383836119d7565b61187f57600073ffffffffffffffffffffffffffffffffffffffff168373ffffffffffffffffffffffffffffffffffffffff160361184057806040517f7e2732890000000000000000000000000000000000000000000000000000000081526004016118379190611ab1565b60405180910390fd5b81816040517f177e802f000000000000000000000000000000000000000000000000000000008152600401611876929190612721565b60405180910390fd5b505050565b600080600090507a184f03e93ff9f4daa797ed6e38ed64bf6a1f01000000000000000083106118e2577a184f03e93ff9f4daa797ed6e38ed64bf6a1f01000000000000000083816118d8576118d76126f2565b5b0492506040810190505b6d04ee2d6d415b85acef8100000000831061191f576d04ee2d6d415b85acef81000000008381611915576119146126f2565b5b0492506020810190505b662386f26fc10000831061194e57662386f26fc100008381611944576119436126f2565b5b0492506010810190505b6305f5e1008310611977576305f5e100838161196d5761196c6126f2565b5b0492506008810190505b612710831061199c576127108381611992576119916126f2565b5b0492506004810190505b606483106119bf57606483816119b5576119b46126f2565b5b0492506002810190505b600a83106119ce576001810190505b80915050919050565b60008073ffffffffffffffffffffffffffffffffffffffff168373ffffffffffffffffffffffffffffffffffffffff1614158015611a8f57508273ffffffffffffffffffffffffffffffffffffffff168473ffffffffffffffffffffffffffffffffffffffff161480611a505750611a4f8484610af6565b5b80611a8e57508273ffffffffffffffffffffffffffffffffffffffff16611a7683610d02565b73ffffffffffffffffffffffffffffffffffffffff16145b5b90509392505050565b6000819050919050565b611aab81611a98565b82525050565b6000602082019050611ac66000830184611aa2565b92915050565b6000604051905090565b600080fd5b600080fd5b60007fffffffff0000000000000000000000000000000000000000000000000000000082169050919050565b611b1581611ae0565b8114611b2057600080fd5b50565b600081359050611b3281611b0c565b92915050565b600060208284031215611b4e57611b4d611ad6565b5b6000611b5c84828501611b23565b91505092915050565b60008115159050919050565b611b7a81611b65565b82525050565b6000602082019050611b956000830184611b71565b92915050565b600081519050919050565b600082825260208201905092915050565b60005b83811015611bd5578082015181840152602081019050611bba565b60008484015250505050565b6000601f19601f8301169050919050565b6000611bfd82611b9b565b611c078185611ba6565b9350611c17818560208601611bb7565b611c2081611be1565b840191505092915050565b60006020820190508181036000830152611c458184611bf2565b905092915050565b611c5681611a98565b8114611c6157600080fd5b50565b600081359050611c7381611c4d565b92915050565b600060208284031215611c8f57611c8e611ad6565b5b6000611c9d84828501611c64565b91505092915050565b600073ffffffffffffffffffffffffffffffffffffffff82169050919050565b6000611cd182611ca6565b9050919050565b611ce181611cc6565b82525050565b6000602082019050611cfc6000830184611cd8565b92915050565b611d0b81611cc6565b8114611d1657600080fd5b50565b600081359050611d2881611d02565b92915050565b60008060408385031215611d4557611d44611ad6565b5b6000611d5385828601611d19565b9250506020611d6485828601611c64565b9150509250929050565b600080600060608486031215611d8757611d86611ad6565b5b6000611d9586828701611d19565b9350506020611da686828701611d19565b9250506040611db786828701611c64565b9150509250925092565b6000606082019050611dd66000830186611aa2565b8181036020830152611de88185611bf2565b90508181036040830152611dfc8184611bf2565b9050949350505050565b600060208284031215611e1c57611e1b611ad6565b5b6000611e2a84828501611d19565b91505092915050565b600080fd5b600080fd5b7f4e487b7100000000000000000000000000000000000000000000000000000000600052604160045260246000fd5b611e7582611be1565b810181811067ffffffffffffffff82111715611e9457611e93611e3d565b5b80604052505050565b6000611ea7611acc565b9050611eb38282611e6c565b919050565b600067ffffffffffffffff821115611ed357611ed2611e3d565b5b611edc82611be1565b9050602081019050919050565b82818337600083830152505050565b6000611f0b611f0684611eb8565b611e9d565b905082815260208101848484011115611f2757611f26611e38565b5b611f32848285611ee9565b509392505050565b600082601f830112611f4f57611f4e611e33565b5b8135611f5f848260208601611ef8565b91505092915050565b60008060008060808587031215611f8257611f81611ad6565b5b6000611f9087828801611d19565b9450506020611fa187828801611c64565b935050604085013567ffffffffffffffff811115611fc257611fc1611adb565b5b611fce87828801611f3a565b925050606085013567ffffffffffffffff811115611fef57611fee611adb565b5b611ffb87828801611f3a565b91505092959194509250565b61201081611b65565b811461201b57600080fd5b50565b60008135905061202d81612007565b92915050565b6000806040838503121561204a57612049611ad6565b5b600061205885828601611d19565b92505060206120698582860161201e565b9150509250929050565b600067ffffffffffffffff82111561208e5761208d611e3d565b5b61209782611be1565b9050602081019050919050565b60006120b76120b284612073565b611e9d565b9050828152602081018484840111156120d3576120d2611e38565b5b6120de848285611ee9565b509392505050565b600082601f8301126120fb576120fa611e33565b5b813561210b8482602086016120a4565b91505092915050565b6000806000806080858703121561212e5761212d611ad6565b5b600061213c87828801611d19565b945050602061214d87828801611d19565b935050604061215e87828801611c64565b925050606085013567ffffffffffffffff81111561217f5761217e611adb565b5b61218b878288016120e6565b91505092959194509250565b600080604083850312156121ae576121ad611ad6565b5b60006121bc85828601611d19565b92505060206121cd85828601611d19565b9150509250929050565b7f4e487b7100000000000000000000000000000000000000000000000000000000600052602260045260246000fd5b6000600282049050600182168061221e57607f821691505b602082108103612231576122306121d7565b5b50919050565b600060608201905061224c6000830186611cd8565b6122596020830185611aa2565b6122666040830184611cd8565b949350505050565b7f4e487b7100000000000000000000000000000000000000000000000000000000600052601160045260246000fd5b60006122a882611a98565b91507fffffffffffffffffffffffffffffffffffffffffffffffffffffffffffffffff82036122da576122d961226e565b5b600182019050919050565b60008190508160005260206000209050919050565b60006020601f8301049050919050565b600082821b905092915050565b6000600883026123477fffffffffffffffffffffffffffffffffffffffffffffffffffffffffffffffff8261230a565b612351868361230a565b95508019841693508086168417925050509392505050565b6000819050919050565b600061238e61238961238484611a98565b612369565b611a98565b9050919050565b6000819050919050565b6123a883612373565b6123bc6123b482612395565b848454612317565b825550505050565b600090565b6123d16123c4565b6123dc81848461239f565b505050565b5b81811015612400576123f56000826123c9565b6001810190506123e2565b5050565b601f82111561244557612416816122e5565b61241f846122fa565b8101602085101561242e578190505b61244261243a856122fa565b8301826123e1565b50505b505050565b600082821c905092915050565b60006124686000198460080261244a565b1980831691505092915050565b60006124818383612457565b9150826002028217905092915050565b61249a82611b9b565b67ffffffffffffffff8111156124b3576124b2611e3d565b5b6124bd8254612206565b6124c8828285612404565b600060209050601f8311600181146124fb57600084156124e9578287015190505b6124f38582612475565b86555061255b565b601f198416612509866122e5565b60005b828110156125315784890151825560018201915060208501945060208101905061250c565b8683101561254e578489015161254a601f891682612457565b8355505b6001600288020188555050505b505050505050565b60006080820190506125786000830187611aa2565b6125856020830186611cd8565b6125926040830185611aa2565b81810360608301526125a48184611bf2565b905095945050505050565b600081905092915050565b60006125c582611b9b565b6125cf81856125af565b93506125df818560208601611bb7565b80840191505092915050565b60006125f782856125ba565b915061260382846125ba565b91508190509392505050565b600081519050919050565b600082825260208201905092915050565b60006126368261260f565b612640818561261a565b9350612650818560208601611bb7565b61265981611be1565b840191505092915050565b60006080820190506126796000830187611cd8565b6126866020830186611cd8565b6126936040830185611aa2565b81810360608301526126a5818461262b565b905095945050505050565b6000815190506126bf81611b0c565b92915050565b6000602082840312156126db576126da611ad6565b5b60006126e9848285016126b0565b91505092915050565b7f4e487b7100000000000000000000000000000000000000000000000000000000600052601260045260246000fd5b60006040820190506127366000830185611cd8565b6127436020830184611aa2565b939250505056fea26469706673582212208e0b947b15ad32d5e9227f983493bdae9e2ef89bf23963817f7319358dcbcc1e64736f6c634300081c0033",
  "linkReferences": {},
  "deployedLinkReferences": {}
}