{
  "_format": "hh-sol-artifact-1",
  "contractName": "AmenityAccess",
  "sourceName": "contracts/AmenityAccess.sol",
  "abi": [
    {
      "inputs": [
        {
          "internalType": "address",
          "name": "_identityNFTAddress",
          "type": "address"
        }
      ],
      "stateMutability": "nonpayable",
      "type": "constructor"
    },
    {
      "inputs": [
        {
          "internalType": "address",
          "name": "owner",
          "type": "address"
        }
      ],
      "name": "OwnableInvalidOwner",
      "type": "error"
    },
    {
      "inputs": [
        {
          "internalType": "address",
          "name": "account",
          "type": "address"
        }
      ],
      "name": "OwnableUnauthorizedAccount",
      "type": "error"
    },
    {
      "anonymous": false,
      "inputs": [
        {
          "indexed": false,
          "internalType": "address",
          "name": "user",
          "type": "address"
        },
        {
          "indexed": false,
          "internalType": "uint256",
          "name": "amenityId",
          "type": "uint256"
        },
        {
          "indexed": false,
          "internalType": "bool",
          "name": "success",
          "type": "bool"
        }
      ],
      "name": "AccessAttempt",
      "type": "event"
    },
    {
      "anonymous": false,
      "inputs": [
        {
          "indexed": false,
          "internalType": "uint256",
          "name": "amenityId",
          "type": "uint256"
        },
        {
          "indexed": false,
          "internalType": "string",
          "name": "amenityName",
          "type": "string"
        }
      ],
      "name": "AmenityAdded",
      "type": "event"
    },
    {
      "anonymous": false,
      "inputs": [
        {
          "indexed": true,
          "internalType": "address",
          "name": "previousOwner",
          "type": "address"
        },
        {
          "indexed": true,
          "internalType": "address",
          "name": "newOwner",
          "type": "address"
        }
      ],
      "name": "OwnershipTransferred",
      "type": "event"
    },
    {
      "inputs": [
        {
          "internalType": "uint256",
          "name": "amenityId",
          "type": "uint256"
        }
      ],
      "name": "accessAmenity",
      "outputs": [],
      "stateMutability": "nonpayable",
      "type": "function"
    },
    {
      "inputs": [
        {
          "internalType": "string",
          "name": "amenityName",
          "type": "string"
        }
      ],
      "name": "addAmenity",
      "outputs": [],
      "stateMutability": "nonpayable",
      "type": "function"
    },
    {
      "inputs": [
        {
          "internalType": "uint256",
          "name": "",
          "type": "uint256"
        }
      ],
      "name": "amenities",
      "outputs": [
        {
          "internalType": "string",
          "name": "",
          "type": "string"
        }
      ],
      "stateMutability": "view",
      "type": "function"
    },
    {
      "inputs": [],
      "name": "amenityCounter",
      "outputs": [
        {
          "internalType": "uint256",
          "name": "",
          "type": "uint256"
        }
      ],
      "stateMutability": "view",
      "type": "function"
    },
    {
      "inputs": [],
      "name": "getAllAmenities",
      "outputs": [
        {
          "internalType": "uint256[]",
          "name": "",
          "type": "uint256[]"
        },
        {
          "internalType": "string[]",
          "name": "",
          "type": "string[]"
        }
      ],
      "stateMutability": "view",
      "type": "function"
    },
    {
      "inputs": [
        {
          "internalType": "uint256",
          "name": "amenityId",
          "type": "uint256"
        }
      ],
      "name": "hasAccess",
      "outputs": [
        {
          "internalType": "bool",
          "name": "",
          "type": "bool"
        }
      ],
      "stateMutability": "view",
      "type": "function"
    },
    {
      "inputs": [],
      "name": "identityNFT",
      "outputs": [
        {
          "internalType": "contract IIdentityNFT",
          "name": "",
          "type": "address"
        }
      ],
      "stateMutability": "view",
      "type": "function"
    },
    {
      "inputs": [],
      "name": "owner",
      "outputs": [
        {
          "internalType": "address",
          "name": "",
          "type": "address"
        }
      ],
      "stateMutability": "view",
      "type": "function"
    },
    {
      "inputs": [],
      "name": "renounceOwnership",
      "outputs": [],
      "stateMutability": "nonpayable",
      "type": "function"
    },
    {
      "inputs": [
        {
          "internalType": "address",
          "name": "newOwner",
          "type": "address"
        }
      ],
      "name": "transferOwnership",
      "outputs": [],
      "stateMutability": "nonpayable",
      "type": "function"
    }
  ],
  "bytecode": "0x608060405234801561001057600080fd5b5060405161163238038061163283398181016040528101906100329190610223565b33600073ffffffffffffffffffffffffffffffffffffffff168173ffffffffffffffffffffffffffffffffffffffff16036100a55760006040517f1e4fbdf700000000000000000000000000000000000000000000000000000000815260040161009c919061025f565b60405180910390fd5b6100b4816100fc60201b60201c565b5080600160006101000a81548173ffffffffffffffffffffffffffffffffffffffff021916908373ffffffffffffffffffffffffffffffffffffffff1602179055505061027a565b60008060009054906101000a900473ffffffffffffffffffffffffffffffffffffffff169050816000806101000a81548173ffffffffffffffffffffffffffffffffffffffff021916908373ffffffffffffffffffffffffffffffffffffffff1602179055508173ffffffffffffffffffffffffffffffffffffffff168173ffffffffffffffffffffffffffffffffffffffff167f8be0079c531659141344cd1fd0a4f28419497f9722a3daafe3b4186f6b6457e060405160405180910390a35050565b600080fd5b600073ffffffffffffffffffffffffffffffffffffffff82169050919050565b60006101f0826101c5565b9050919050565b610200816101e5565b811461020b57600080fd5b50565b60008151905061021d816101f7565b92915050565b600060208284031215610239576102386101c0565b5b60006102478482850161020e565b91505092915050565b610259816101e5565b82525050565b60006020820190506102746000830184610250565b92915050565b6113a9806102896000396000f3fe608060405234801561001057600080fd5b506004361061009e5760003560e01c8063a86e322311610066578063a86e322314610136578063ad4b677d14610152578063c899c5d614610170578063ea06abce146101a0578063f2fde38b146101be5761009e565b8063310c7901146100a35780633132ddfe146100c2578063484f81f5146100f2578063715018a61461010e5780638da5cb5b14610118575b600080fd5b6100ab6101da565b6040516100b9929190610a93565b60405180910390f35b6100dc60048036038101906100d79190610b0a565b610393565b6040516100e99190610b52565b60405180910390f35b61010c60048036038101906101079190610ca2565b6104d0565b005b610116610551565b005b610120610565565b60405161012d9190610d2c565b60405180910390f35b610150600480360381019061014b9190610b0a565b61058e565b005b61015a6105d4565b6040516101679190610d56565b60405180910390f35b61018a60048036038101906101859190610b0a565b6105da565b6040516101979190610dbb565b60405180910390f35b6101a861067a565b6040516101b59190610e3c565b60405180910390f35b6101d860048036038101906101d39190610e83565b6106a0565b005b606080600060035467ffffffffffffffff8111156101fb576101fa610b77565b5b6040519080825280602002602001820160405280156102295781602001602082028036833780820191505090505b509050600060035467ffffffffffffffff81111561024a57610249610b77565b5b60405190808252806020026020018201604052801561027d57816020015b60608152602001906001900390816102685790505b50905060005b60035481101561038657600060018261029c9190610edf565b9050808483815181106102b2576102b1610f13565b5b6020026020010181815250506002600082815260200190815260200160002080546102dc90610f71565b80601f016020809104026020016040519081016040528092919081815260200182805461030890610f71565b80156103555780601f1061032a57610100808354040283529160200191610355565b820191906000526020600020905b81548152906001019060200180831161033857829003601f168201915b505050505083838151811061036d5761036c610f13565b5b6020026020010181905250508080600101915050610283565b5081819350935050509091565b600080821180156103a657506003548211155b6103e5576040517f08c379a00000000000000000000000000000000000000000000000000000000081526004016103dc90610fee565b60405180910390fd5b6103ed610565565b73ffffffffffffffffffffffffffffffffffffffff163373ffffffffffffffffffffffffffffffffffffffff160361042857600190506104cb565b6000600160009054906101000a900473ffffffffffffffffffffffffffffffffffffffff1673ffffffffffffffffffffffffffffffffffffffff166391f1075d336040518263ffffffff1660e01b81526004016104859190610d2c565b602060405180830381865afa1580156104a2573d6000803e3d6000fd5b505050506040513d601f19601f820116820180604052508101906104c69190611023565b141590505b919050565b6104d8610726565b600360008154809291906104eb90611050565b9190505550806002600060035481526020019081526020016000209081610512919061123a565b507fd592a48daf3b909b15c4610ff0f862e1923324fd0b33afda6924c9fb17f086396003548260405161054692919061130c565b60405180910390a150565b610559610726565b61056360006107ad565b565b60008060009054906101000a900473ffffffffffffffffffffffffffffffffffffffff16905090565b7fc9741799a597e7f829344104324324429e7cbf17608dd6c0da07231b1f80ba4e33826105ba84610393565b6040516105c99392919061133c565b60405180910390a150565b60035481565b600260205280600052604060002060009150905080546105f990610f71565b80601f016020809104026020016040519081016040528092919081815260200182805461062590610f71565b80156106725780601f1061064757610100808354040283529160200191610672565b820191906000526020600020905b81548152906001019060200180831161065557829003601f168201915b505050505081565b600160009054906101000a900473ffffffffffffffffffffffffffffffffffffffff1681565b6106a8610726565b600073ffffffffffffffffffffffffffffffffffffffff168173ffffffffffffffffffffffffffffffffffffffff160361071a5760006040517f1e4fbdf70000000000000000000000000000000000000000000000000000000081526004016107119190610d2c565b60405180910390fd5b610723816107ad565b50565b61072e610871565b73ffffffffffffffffffffffffffffffffffffffff1661074c610565565b73ffffffffffffffffffffffffffffffffffffffff16146107ab5761076f610871565b6040517f118cdaa70000000000000000000000000000000000000000000000000000000081526004016107a29190610d2c565b60405180910390fd5b565b60008060009054906101000a900473ffffffffffffffffffffffffffffffffffffffff169050816000806101000a81548173ffffffffffffffffffffffffffffffffffffffff021916908373ffffffffffffffffffffffffffffffffffffffff1602179055508173ffffffffffffffffffffffffffffffffffffffff168173ffffffffffffffffffffffffffffffffffffffff167f8be0079c531659141344cd1fd0a4f28419497f9722a3daafe3b4186f6b6457e060405160405180910390a35050565b600033905090565b600081519050919050565b600082825260208201905092915050565b6000819050602082019050919050565b6000819050919050565b6108b8816108a5565b82525050565b60006108ca83836108af565b60208301905092915050565b6000602082019050919050565b60006108ee82610879565b6108f88185610884565b935061090383610895565b8060005b8381101561093457815161091b88826108be565b9750610926836108d6565b925050600181019050610907565b5085935050505092915050565b600081519050919050565b600082825260208201905092915050565b6000819050602082019050919050565b600081519050919050565b600082825260208201905092915050565b60005b838110156109a757808201518184015260208101905061098c565b60008484015250505050565b6000601f19601f8301169050919050565b60006109cf8261096d565b6109d98185610978565b93506109e9818560208601610989565b6109f2816109b3565b840191505092915050565b6000610a0983836109c4565b905092915050565b6000602082019050919050565b6000610a2982610941565b610a33818561094c565b935083602082028501610a458561095d565b8060005b85811015610a815784840389528151610a6285826109fd565b9450610a6d83610a11565b925060208a01995050600181019050610a49565b50829750879550505050505092915050565b60006040820190508181036000830152610aad81856108e3565b90508181036020830152610ac18184610a1e565b90509392505050565b6000604051905090565b600080fd5b600080fd5b610ae7816108a5565b8114610af257600080fd5b50565b600081359050610b0481610ade565b92915050565b600060208284031215610b2057610b1f610ad4565b5b6000610b2e84828501610af5565b91505092915050565b60008115159050919050565b610b4c81610b37565b82525050565b6000602082019050610b676000830184610b43565b92915050565b600080fd5b600080fd5b7f4e487b7100000000000000000000000000000000000000000000000000000000600052604160045260246000fd5b610baf826109b3565b810181811067ffffffffffffffff82111715610bce57610bcd610b77565b5b80604052505050565b6000610be1610aca565b9050610bed8282610ba6565b919050565b600067ffffffffffffffff821115610c0d57610c0c610b77565b5b610c16826109b3565b9050602081019050919050565b82818337600083830152505050565b6000610c45610c4084610bf2565b610bd7565b905082815260208101848484011115610c6157610c60610b72565b5b610c6c848285610c23565b509392505050565b600082601f830112610c8957610c88610b6d565b5b8135610c99848260208601610c32565b91505092915050565b600060208284031215610cb857610cb7610ad4565b5b600082013567ffffffffffffffff811115610cd657610cd5610ad9565b5b610ce284828501610c74565b91505092915050565b600073ffffffffffffffffffffffffffffffffffffffff82169050919050565b6000610d1682610ceb565b9050919050565b610d2681610d0b565b82525050565b6000602082019050610d416000830184610d1d565b92915050565b610d50816108a5565b82525050565b6000602082019050610d6b6000830184610d47565b92915050565b600082825260208201905092915050565b6000610d8d8261096d565b610d978185610d71565b9350610da7818560208601610989565b610db0816109b3565b840191505092915050565b60006020820190508181036000830152610dd58184610d82565b905092915050565b6000819050919050565b6000610e02610dfd610df884610ceb565b610ddd565b610ceb565b9050919050565b6000610e1482610de7565b9050919050565b6000610e2682610e09565b9050919050565b610e3681610e1b565b82525050565b6000602082019050610e516000830184610e2d565b92915050565b610e6081610d0b565b8114610e6b57600080fd5b50565b600081359050610e7d81610e57565b92915050565b600060208284031215610e9957610e98610ad4565b5b6000610ea784828501610e6e565b91505092915050565b7f4e487b7100000000000000000000000000000000000000000000000000000000600052601160045260246000fd5b6000610eea826108a5565b9150610ef5836108a5565b9250828201905080821115610f0d57610f0c610eb0565b5b92915050565b7f4e487b7100000000000000000000000000000000000000000000000000000000600052603260045260246000fd5b7f4e487b7100000000000000000000000000000000000000000000000000000000600052602260045260246000fd5b60006002820490506001821680610f8957607f821691505b602082108103610f9c57610f9b610f42565b5b50919050565b7f496e76616c696420616d656e6974790000000000000000000000000000000000600082015250565b6000610fd8600f83610d71565b9150610fe382610fa2565b602082019050919050565b6000602082019050818103600083015261100781610fcb565b9050919050565b60008151905061101d81610ade565b92915050565b60006020828403121561103957611038610ad4565b5b60006110478482850161100e565b91505092915050565b600061105b826108a5565b91507fffffffffffffffffffffffffffffffffffffffffffffffffffffffffffffffff820361108d5761108c610eb0565b5b600182019050919050565b60008190508160005260206000209050919050565b60006020601f8301049050919050565b600082821b905092915050565b6000600883026110fa7fffffffffffffffffffffffffffffffffffffffffffffffffffffffffffffffff826110bd565b61110486836110bd565b95508019841693508086168417925050509392505050565b600061113761113261112d846108a5565b610ddd565b6108a5565b9050919050565b6000819050919050565b6111518361111c565b61116561115d8261113e565b8484546110ca565b825550505050565b600090565b61117a61116d565b611185818484611148565b505050565b5b818110156111a95761119e600082611172565b60018101905061118b565b5050565b601f8211156111ee576111bf81611098565b6111c8846110ad565b810160208510156111d7578190505b6111eb6111e3856110ad565b83018261118a565b50505b505050565b600082821c905092915050565b6000611211600019846008026111f3565b1980831691505092915050565b600061122a8383611200565b9150826002028217905092915050565b6112438261096d565b67ffffffffffffffff81111561125c5761125b610b77565b5b6112668254610f71565b6112718282856111ad565b600060209050601f8311600181146112a45760008415611292578287015190505b61129c858261121e565b865550611304565b601f1984166112b286611098565b60005b828110156112da578489015182556001820191506020850194506020810190506112b5565b868310156112f757848901516112f3601f891682611200565b8355505b6001600288020188555050505b505050505050565b60006040820190506113216000830185610d47565b81810360208301526113338184610d82565b90509392505050565b60006060820190506113516000830186610d1d565b61135e6020830185610d47565b61136b6040830184610b43565b94935050505056fea26469706673582212205c4a6c9f5bc2abeaeefdea7ff956f2a288ae57c53f5b44f7dda5b4b92e38e50464736f6c634300081c0033",
  "linkReferences": {},
  "deployedLinkReferences": {}
}