{
  "_format": "hh-sol-artifact-1",
  "contractName": "AmenityAccess",
  "sourceName": "contracts/AmenityAccess.sol",
  "abi": [
    {
      "inputs": [
        {
          "internalType": "address",
          "name": "_identityNFTAddress",
          "type": "address"
        }
      ],
      "stateMutability": "nonpayable",
      "type": "constructor"
    },
    {
      "inputs": [
        {
          "internalType": "address",
          "name": "owner",
          "type": "address"
        }
      ],
      "name": "OwnableInvalidOwner",
      "type": "error"
    },
    {
      "inputs": [
        {
          "internalType": "address",
          "name": "account",
          "type": "address"
        }
      ],
      "name": "OwnableUnauthorizedAccount",
      "type": "error"
    },
    {
      "anonymous": false,
      "inputs": [
        {
          "indexed": false,
          "internalType": "address",
          "name": "user",
          "type": "address"
        },
        {
          "indexed": false,
          "internalType": "uint256",
          "name": "amenityId",
          "type": "uint256"
        },
        {
          "indexed": false,
          "internalType": "bool",
          "name": "success",
          "type": "bool"
        }
      ],
      "name": "AccessAttempt",
      "type": "event"
    },
    {
      "anonymous": false,
      "inputs": [
        {
          "indexed": false,
          "internalType": "uint256",
          "name": "amenityId",
          "type": "uint256"
        },
        {
          "indexed": false,
          "internalType": "string",
          "name": "amenityName",
          "type": "string"
        }
      ],
      "name": "AmenityAdded",
      "type": "event"
    },
    {
      "anonymous": false,
      "inputs": [
        {
          "indexed": true,
          "internalType": "address",
          "name": "previousOwner",
          "type": "address"
        },
        {
          "indexed": true,
          "internalType": "address",
          "name": "newOwner",
          "type": "address"
        }
      ],
      "name": "OwnershipTransferred",
      "type": "event"
    },
    {
      "inputs": [
        {
          "internalType": "uint256",
          "name": "amenityId",
          "type": "uint256"
        }
      ],
      "name": "accessAmenity",
      "outputs": [],
      "stateMutability": "nonpayable",
      "type": "function"
    },
    {
      "inputs": [
        {
          "internalType": "string",
          "name": "amenityName",
          "type": "string"
        }
      ],
      "name": "addAmenity",
      "outputs": [],
      "stateMutability": "nonpayable",
      "type": "function"
    },
    {
      "inputs": [
        {
          "internalType": "uint256",
          "name": "",
          "type": "uint256"
        }
      ],
      "name": "amenities",
      "outputs": [
        {
          "internalType": "string",
          "name": "",
          "type": "string"
        }
      ],
      "stateMutability": "view",
      "type": "function"
    },
    {
      "inputs": [],
      "name": "amenityCounter",
      "outputs": [
        {
          "internalType": "uint256",
          "name": "",
          "type": "uint256"
        }
      ],
      "stateMutability": "view",
      "type": "function"
    },
    {
      "inputs": [
        {
          "internalType": "uint256",
          "name": "amenityId",
          "type": "uint256"
        }
      ],
      "name": "hasAccess",
      "outputs": [
        {
          "internalType": "bool",
          "name": "",
          "type": "bool"
        }
      ],
      "stateMutability": "view",
      "type": "function"
    },
    {
      "inputs": [],
      "name": "identityNFT",
      "outputs": [
        {
          "internalType": "contract IIdentityNFT",
          "name": "",
          "type": "address"
        }
      ],
      "stateMutability": "view",
      "type": "function"
    },
    {
      "inputs": [],
      "name": "owner",
      "outputs": [
        {
          "internalType": "address",
          "name": "",
          "type": "address"
        }
      ],
      "stateMutability": "view",
      "type": "function"
    },
    {
      "inputs": [],
      "name": "renounceOwnership",
      "outputs": [],
      "stateMutability": "nonpayable",
      "type": "function"
    },
    {
      "inputs": [
        {
          "internalType": "address",
          "name": "newOwner",
          "type": "address"
        }
      ],
      "name": "transferOwnership",
      "outputs": [],
      "stateMutability": "nonpayable",
      "type": "function"
    }
  ],
  "bytecode": "0x608060405234801561001057600080fd5b506040516111a73803806111a783398181016040528101906100329190610223565b33600073ffffffffffffffffffffffffffffffffffffffff168173ffffffffffffffffffffffffffffffffffffffff16036100a55760006040517f1e4fbdf700000000000000000000000000000000000000000000000000000000815260040161009c919061025f565b60405180910390fd5b6100b4816100fc60201b60201c565b5080600160006101000a81548173ffffffffffffffffffffffffffffffffffffffff021916908373ffffffffffffffffffffffffffffffffffffffff1602179055505061027a565b60008060009054906101000a900473ffffffffffffffffffffffffffffffffffffffff169050816000806101000a81548173ffffffffffffffffffffffffffffffffffffffff021916908373ffffffffffffffffffffffffffffffffffffffff1602179055508173ffffffffffffffffffffffffffffffffffffffff168173ffffffffffffffffffffffffffffffffffffffff167f8be0079c531659141344cd1fd0a4f28419497f9722a3daafe3b4186f6b6457e060405160405180910390a35050565b600080fd5b600073ffffffffffffffffffffffffffffffffffffffff82169050919050565b60006101f0826101c5565b9050919050565b610200816101e5565b811461020b57600080fd5b50565b60008151905061021d816101f7565b92915050565b600060208284031215610239576102386101c0565b5b60006102478482850161020e565b91505092915050565b610259816101e5565b82525050565b60006020820190506102746000830184610250565b92915050565b610f1e806102896000396000f3fe608060405234801561001057600080fd5b50600436106100935760003560e01c8063a86e322311610066578063a86e32231461010c578063ad4b677d14610128578063c899c5d614610146578063ea06abce14610176578063f2fde38b1461019457610093565b80633132ddfe14610098578063484f81f5146100c8578063715018a6146100e45780638da5cb5b146100ee575b600080fd5b6100b260048036038101906100ad919061069c565b6101b0565b6040516100bf91906106e4565b60405180910390f35b6100e260048036038101906100dd9190610845565b6102a9565b005b6100ec61032a565b005b6100f661033e565b60405161010391906108cf565b60405180910390f35b6101266004803603810190610121919061069c565b610367565b005b6101306103ad565b60405161013d91906108f9565b60405180910390f35b610160600480360381019061015b919061069c565b6103b3565b60405161016d9190610993565b60405180910390f35b61017e610453565b60405161018b9190610a14565b60405180910390f35b6101ae60048036038101906101a99190610a5b565b610479565b005b600080821180156101c357506003548211155b610202576040517f08c379a00000000000000000000000000000000000000000000000000000000081526004016101f990610ad4565b60405180910390fd5b6000600160009054906101000a900473ffffffffffffffffffffffffffffffffffffffff1673ffffffffffffffffffffffffffffffffffffffff166391f1075d336040518263ffffffff1660e01b815260040161025f91906108cf565b602060405180830381865afa15801561027c573d6000803e3d6000fd5b505050506040513d601f19601f820116820180604052508101906102a09190610b09565b14159050919050565b6102b16104ff565b600360008154809291906102c490610b65565b91905055508060026000600354815260200190815260200160002090816102eb9190610daf565b507fd592a48daf3b909b15c4610ff0f862e1923324fd0b33afda6924c9fb17f086396003548260405161031f929190610e81565b60405180910390a150565b6103326104ff565b61033c6000610586565b565b60008060009054906101000a900473ffffffffffffffffffffffffffffffffffffffff16905090565b7fc9741799a597e7f829344104324324429e7cbf17608dd6c0da07231b1f80ba4e3382610393846101b0565b6040516103a293929190610eb1565b60405180910390a150565b60035481565b600260205280600052604060002060009150905080546103d290610bdc565b80601f01602080910402602001604051908101604052809291908181526020018280546103fe90610bdc565b801561044b5780601f106104205761010080835404028352916020019161044b565b820191906000526020600020905b81548152906001019060200180831161042e57829003601f168201915b505050505081565b600160009054906101000a900473ffffffffffffffffffffffffffffffffffffffff1681565b6104816104ff565b600073ffffffffffffffffffffffffffffffffffffffff168173ffffffffffffffffffffffffffffffffffffffff16036104f35760006040517f1e4fbdf70000000000000000000000000000000000000000000000000000000081526004016104ea91906108cf565b60405180910390fd5b6104fc81610586565b50565b61050761064a565b73ffffffffffffffffffffffffffffffffffffffff1661052561033e565b73ffffffffffffffffffffffffffffffffffffffff16146105845761054861064a565b6040517f118cdaa700000000000000000000000000000000000000000000000000000000815260040161057b91906108cf565b60405180910390fd5b565b60008060009054906101000a900473ffffffffffffffffffffffffffffffffffffffff169050816000806101000a81548173ffffffffffffffffffffffffffffffffffffffff021916908373ffffffffffffffffffffffffffffffffffffffff1602179055508173ffffffffffffffffffffffffffffffffffffffff168173ffffffffffffffffffffffffffffffffffffffff167f8be0079c531659141344cd1fd0a4f28419497f9722a3daafe3b4186f6b6457e060405160405180910390a35050565b600033905090565b6000604051905090565b600080fd5b600080fd5b6000819050919050565b61067981610666565b811461068457600080fd5b50565b60008135905061069681610670565b92915050565b6000602082840312156106b2576106b161065c565b5b60006106c084828501610687565b91505092915050565b60008115159050919050565b6106de816106c9565b82525050565b60006020820190506106f960008301846106d5565b92915050565b600080fd5b600080fd5b6000601f19601f8301169050919050565b7f4e487b7100000000000000000000000000000000000000000000000000000000600052604160045260246000fd5b61075282610709565b810181811067ffffffffffffffff821117156107715761077061071a565b5b80604052505050565b6000610784610652565b90506107908282610749565b919050565b600067ffffffffffffffff8211156107b0576107af61071a565b5b6107b982610709565b9050602081019050919050565b82818337600083830152505050565b60006107e86107e384610795565b61077a565b90508281526020810184848401111561080457610803610704565b5b61080f8482856107c6565b509392505050565b600082601f83011261082c5761082b6106ff565b5b813561083c8482602086016107d5565b91505092915050565b60006020828403121561085b5761085a61065c565b5b600082013567ffffffffffffffff81111561087957610878610661565b5b61088584828501610817565b91505092915050565b600073ffffffffffffffffffffffffffffffffffffffff82169050919050565b60006108b98261088e565b9050919050565b6108c9816108ae565b82525050565b60006020820190506108e460008301846108c0565b92915050565b6108f381610666565b82525050565b600060208201905061090e60008301846108ea565b92915050565b600081519050919050565b600082825260208201905092915050565b60005b8381101561094e578082015181840152602081019050610933565b60008484015250505050565b600061096582610914565b61096f818561091f565b935061097f818560208601610930565b61098881610709565b840191505092915050565b600060208201905081810360008301526109ad818461095a565b905092915050565b6000819050919050565b60006109da6109d56109d08461088e565b6109b5565b61088e565b9050919050565b60006109ec826109bf565b9050919050565b60006109fe826109e1565b9050919050565b610a0e816109f3565b82525050565b6000602082019050610a296000830184610a05565b92915050565b610a38816108ae565b8114610a4357600080fd5b50565b600081359050610a5581610a2f565b92915050565b600060208284031215610a7157610a7061065c565b5b6000610a7f84828501610a46565b91505092915050565b7f496e76616c696420616d656e6974790000000000000000000000000000000000600082015250565b6000610abe600f8361091f565b9150610ac982610a88565b602082019050919050565b60006020820190508181036000830152610aed81610ab1565b9050919050565b600081519050610b0381610670565b92915050565b600060208284031215610b1f57610b1e61065c565b5b6000610b2d84828501610af4565b91505092915050565b7f4e487b7100000000000000000000000000000000000000000000000000000000600052601160045260246000fd5b6000610b7082610666565b91507fffffffffffffffffffffffffffffffffffffffffffffffffffffffffffffffff8203610ba257610ba1610b36565b5b600182019050919050565b7f4e487b7100000000000000000000000000000000000000000000000000000000600052602260045260246000fd5b60006002820490506001821680610bf457607f821691505b602082108103610c0757610c06610bad565b5b50919050565b60008190508160005260206000209050919050565b60006020601f8301049050919050565b600082821b905092915050565b600060088302610c6f7fffffffffffffffffffffffffffffffffffffffffffffffffffffffffffffffff82610c32565b610c798683610c32565b95508019841693508086168417925050509392505050565b6000610cac610ca7610ca284610666565b6109b5565b610666565b9050919050565b6000819050919050565b610cc683610c91565b610cda610cd282610cb3565b848454610c3f565b825550505050565b600090565b610cef610ce2565b610cfa818484610cbd565b505050565b5b81811015610d1e57610d13600082610ce7565b600181019050610d00565b5050565b601f821115610d6357610d3481610c0d565b610d3d84610c22565b81016020851015610d4c578190505b610d60610d5885610c22565b830182610cff565b50505b505050565b600082821c905092915050565b6000610d8660001984600802610d68565b1980831691505092915050565b6000610d9f8383610d75565b9150826002028217905092915050565b610db882610914565b67ffffffffffffffff811115610dd157610dd061071a565b5b610ddb8254610bdc565b610de6828285610d22565b600060209050601f831160018114610e195760008415610e07578287015190505b610e118582610d93565b865550610e79565b601f198416610e2786610c0d565b60005b82811015610e4f57848901518255600182019150602085019450602081019050610e2a565b86831015610e6c5784890151610e68601f891682610d75565b8355505b6001600288020188555050505b505050505050565b6000604082019050610e9660008301856108ea565b8181036020830152610ea8818461095a565b90509392505050565b6000606082019050610ec660008301866108c0565b610ed360208301856108ea565b610ee060408301846106d5565b94935050505056fea2646970667358221220e6a3e255aabb0904afc150c215dc01c846ef9699ad066415d6e9af6a07e4cef864736f6c634300081c0033",
  "linkReferences": {},
  "deployedLinkReferences": {}
}