{
  "_format": "hh-sol-artifact-1",
  "contractName": "IITIdentityNFT",
  "sourceName": "contracts/IITIdentityNFT.sol",
  "abi": [
    {
      "inputs": [],
      "stateMutability": "nonpayable",
      "type": "constructor"
    },
    {
      "inputs": [
        {
          "internalType": "address",
          "name": "sender",
          "type": "address"
        },
        {
          "internalType": "uint256",
          "name": "tokenId",
          "type": "uint256"
        },
        {
          "internalType": "address",
          "name": "owner",
          "type": "address"
        }
      ],
      "name": "ERC721IncorrectOwner",
      "type": "error"
    },
    {
      "inputs": [
        {
          "internalType": "address",
          "name": "operator",
          "type": "address"
        },
        {
          "internalType": "uint256",
          "name": "tokenId",
          "type": "uint256"
        }
      ],
      "name": "ERC721InsufficientApproval",
      "type": "error"
    },
    {
      "inputs": [
        {
          "internalType": "address",
          "name": "approver",
          "type": "address"
        }
      ],
      "name": "ERC721InvalidApprover",
      "type": "error"
    },
    {
      "inputs": [
        {
          "internalType": "address",
          "name": "operator",
          "type": "address"
        }
      ],
      "name": "ERC721InvalidOperator",
      "type": "error"
    },
    {
      "inputs": [
        {
          "internalType": "address",
          "name": "owner",
          "type": "address"
        }
      ],
      "name": "ERC721InvalidOwner",
      "type": "error"
    },
    {
      "inputs": [
        {
          "internalType": "address",
          "name": "receiver",
          "type": "address"
        }
      ],
      "name": "ERC721InvalidReceiver",
      "type": "error"
    },
    {
      "inputs": [
        {
          "internalType": "address",
          "name": "sender",
          "type": "address"
        }
      ],
      "name": "ERC721InvalidSender",
      "type": "error"
    },
    {
      "inputs": [
        {
          "internalType": "uint256",
          "name": "tokenId",
          "type": "uint256"
        }
      ],
      "name": "ERC721NonexistentToken",
      "type": "error"
    },
    {
      "inputs": [
        {
          "internalType": "address",
          "name": "owner",
          "type": "address"
        }
      ],
      "name": "OwnableInvalidOwner",
      "type": "error"
    },
    {
      "inputs": [
        {
          "internalType": "address",
          "name": "account",
          "type": "address"
        }
      ],
      "name": "OwnableUnauthorizedAccount",
      "type": "error"
    },
    {
      "anonymous": false,
      "inputs": [
        {
          "indexed": true,
          "internalType": "address",
          "name": "owner",
          "type": "address"
        },
        {
          "indexed": true,
          "internalType": "address",
          "name": "approved",
          "type": "address"
        },
        {
          "indexed": true,
          "internalType": "uint256",
          "name": "tokenId",
          "type": "uint256"
        }
      ],
      "name": "Approval",
      "type": "event"
    },
    {
      "anonymous": false,
      "inputs": [
        {
          "indexed": true,
          "internalType": "address",
          "name": "owner",
          "type": "address"
        },
        {
          "indexed": true,
          "internalType": "address",
          "name": "operator",
          "type": "address"
        },
        {
          "indexed": false,
          "internalType": "bool",
          "name": "approved",
          "type": "bool"
        }
      ],
      "name": "ApprovalForAll",
      "type": "event"
    },
    {
      "anonymous": false,
      "inputs": [
        {
          "indexed": false,
          "internalType": "uint256",
          "name": "_fromTokenId",
          "type": "uint256"
        },
        {
          "indexed": false,
          "internalType": "uint256",
          "name": "_toTokenId",
          "type": "uint256"
        }
      ],
      "name": "BatchMetadataUpdate",
      "type": "event"
    },
    {
      "anonymous": false,
      "inputs": [
        {
          "indexed": false,
          "internalType": "uint256",
          "name": "_tokenId",
          "type": "uint256"
        }
      ],
      "name": "MetadataUpdate",
      "type": "event"
    },
    {
      "anonymous": false,
      "inputs": [
        {
          "indexed": true,
          "internalType": "address",
          "name": "previousOwner",
          "type": "address"
        },
        {
          "indexed": true,
          "internalType": "address",
          "name": "newOwner",
          "type": "address"
        }
      ],
      "name": "OwnershipTransferred",
      "type": "event"
    },
    {
      "anonymous": false,
      "inputs": [
        {
          "indexed": true,
          "internalType": "address",
          "name": "from",
          "type": "address"
        },
        {
          "indexed": true,
          "internalType": "address",
          "name": "to",
          "type": "address"
        },
        {
          "indexed": true,
          "internalType": "uint256",
          "name": "tokenId",
          "type": "uint256"
        }
      ],
      "name": "Transfer",
      "type": "event"
    },
    {
      "inputs": [
        {
          "internalType": "address",
          "name": "to",
          "type": "address"
        },
        {
          "internalType": "uint256",
          "name": "tokenId",
          "type": "uint256"
        }
      ],
      "name": "approve",
      "outputs": [],
      "stateMutability": "nonpayable",
      "type": "function"
    },
    {
      "inputs": [
        {
          "internalType": "address",
          "name": "owner",
          "type": "address"
        }
      ],
      "name": "balanceOf",
      "outputs": [
        {
          "internalType": "uint256",
          "name": "",
          "type": "uint256"
        }
      ],
      "stateMutability": "view",
      "type": "function"
    },
    {
      "inputs": [
        {
          "internalType": "uint256",
          "name": "tokenId",
          "type": "uint256"
        }
      ],
      "name": "getApproved",
      "outputs": [
        {
          "internalType": "address",
          "name": "",
          "type": "address"
        }
      ],
      "stateMutability": "view",
      "type": "function"
    },
    {
      "inputs": [
        {
          "internalType": "address",
          "name": "owner",
          "type": "address"
        },
        {
          "internalType": "address",
          "name": "operator",
          "type": "address"
        }
      ],
      "name": "isApprovedForAll",
      "outputs": [
        {
          "internalType": "bool",
          "name": "",
          "type": "bool"
        }
      ],
      "stateMutability": "view",
      "type": "function"
    },
    {
      "inputs": [
        {
          "internalType": "address",
          "name": "recipient",
          "type": "address"
        },
        {
          "internalType": "string",
          "name": "tokenURI",
          "type": "string"
        }
      ],
      "name": "mint",
      "outputs": [
        {
          "internalType": "uint256",
          "name": "",
          "type": "uint256"
        }
      ],
      "stateMutability": "nonpayable",
      "type": "function"
    },
    {
      "inputs": [],
      "name": "name",
      "outputs": [
        {
          "internalType": "string",
          "name": "",
          "type": "string"
        }
      ],
      "stateMutability": "view",
      "type": "function"
    },
    {
      "inputs": [],
      "name": "owner",
      "outputs": [
        {
          "internalType": "address",
          "name": "",
          "type": "address"
        }
      ],
      "stateMutability": "view",
      "type": "function"
    },
    {
      "inputs": [
        {
          "internalType": "uint256",
          "name": "tokenId",
          "type": "uint256"
        }
      ],
      "name": "ownerOf",
      "outputs": [
        {
          "internalType": "address",
          "name": "",
          "type": "address"
        }
      ],
      "stateMutability": "view",
      "type": "function"
    },
    {
      "inputs": [],
      "name": "renounceOwnership",
      "outputs": [],
      "stateMutability": "nonpayable",
      "type": "function"
    },
    {
      "inputs": [
        {
          "internalType": "address",
          "name": "from",
          "type": "address"
        },
        {
          "internalType": "address",
          "name": "to",
          "type": "address"
        },
        {
          "internalType": "uint256",
          "name": "tokenId",
          "type": "uint256"
        }
      ],
      "name": "safeTransferFrom",
      "outputs": [],
      "stateMutability": "nonpayable",
      "type": "function"
    },
    {
      "inputs": [
        {
          "internalType": "address",
          "name": "from",
          "type": "address"
        },
        {
          "internalType": "address",
          "name": "to",
          "type": "address"
        },
        {
          "internalType": "uint256",
          "name": "tokenId",
          "type": "uint256"
        },
        {
          "internalType": "bytes",
          "name": "data",
          "type": "bytes"
        }
      ],
      "name": "safeTransferFrom",
      "outputs": [],
      "stateMutability": "nonpayable",
      "type": "function"
    },
    {
      "inputs": [
        {
          "internalType": "address",
          "name": "operator",
          "type": "address"
        },
        {
          "internalType": "bool",
          "name": "approved",
          "type": "bool"
        }
      ],
      "name": "setApprovalForAll",
      "outputs": [],
      "stateMutability": "nonpayable",
      "type": "function"
    },
    {
      "inputs": [
        {
          "internalType": "bytes4",
          "name": "interfaceId",
          "type": "bytes4"
        }
      ],
      "name": "supportsInterface",
      "outputs": [
        {
          "internalType": "bool",
          "name": "",
          "type": "bool"
        }
      ],
      "stateMutability": "view",
      "type": "function"
    },
    {
      "inputs": [],
      "name": "symbol",
      "outputs": [
        {
          "internalType": "string",
          "name": "",
          "type": "string"
        }
      ],
      "stateMutability": "view",
      "type": "function"
    },
    {
      "inputs": [],
      "name": "tokenCount",
      "outputs": [
        {
          "internalType": "uint256",
          "name": "",
          "type": "uint256"
        }
      ],
      "stateMutability": "view",
      "type": "function"
    },
    {
      "inputs": [
        {
          "internalType": "uint256",
          "name": "tokenId",
          "type": "uint256"
        }
      ],
      "name": "tokenURI",
      "outputs": [
        {
          "internalType": "string",
          "name": "",
          "type": "string"
        }
      ],
      "stateMutability": "view",
      "type": "function"
    },
    {
      "inputs": [
        {
          "internalType": "address",
          "name": "from",
          "type": "address"
        },
        {
          "internalType": "address",
          "name": "to",
          "type": "address"
        },
        {
          "internalType": "uint256",
          "name": "tokenId",
          "type": "uint256"
        }
      ],
      "name": "transferFrom",
      "outputs": [],
      "stateMutability": "nonpayable",
      "type": "function"
    },
    {
      "inputs": [
        {
          "internalType": "address",
          "name": "newOwner",
          "type": "address"
        }
      ],
      "name": "transferOwnership",
      "outputs": [],
      "stateMutability": "nonpayable",
      "type": "function"
    }
  ],
  "bytecode": "0x608060405234801561001057600080fd5b50336040518060400160405280601281526020017f494954446861727761644964656e7469747900000000000000000000000000008152506040518060400160405280600681526020017f4949544449440000000000000000000000000000000000000000000000000000815250816000908161008d919061043d565b50806001908161009d919061043d565b505050600073ffffffffffffffffffffffffffffffffffffffff168173ffffffffffffffffffffffffffffffffffffffff16036101125760006040517f1e4fbdf70000000000000000000000000000000000000000000000000000000081526004016101099190610550565b60405180910390fd5b6101218161012760201b60201c565b5061056b565b6000600760009054906101000a900473ffffffffffffffffffffffffffffffffffffffff16905081600760006101000a81548173ffffffffffffffffffffffffffffffffffffffff021916908373ffffffffffffffffffffffffffffffffffffffff1602179055508173ffffffffffffffffffffffffffffffffffffffff168173ffffffffffffffffffffffffffffffffffffffff167f8be0079c531659141344cd1fd0a4f28419497f9722a3daafe3b4186f6b6457e060405160405180910390a35050565b600081519050919050565b7f4e487b7100000000000000000000000000000000000000000000000000000000600052604160045260246000fd5b7f4e487b7100000000000000000000000000000000000000000000000000000000600052602260045260246000fd5b6000600282049050600182168061026e57607f821691505b60208210810361028157610280610227565b5b50919050565b60008190508160005260206000209050919050565b60006020601f8301049050919050565b600082821b905092915050565b6000600883026102e97fffffffffffffffffffffffffffffffffffffffffffffffffffffffffffffffff826102ac565b6102f386836102ac565b95508019841693508086168417925050509392505050565b6000819050919050565b6000819050919050565b600061033a6103356103308461030b565b610315565b61030b565b9050919050565b6000819050919050565b6103548361031f565b61036861036082610341565b8484546102b9565b825550505050565b600090565b61037d610370565b61038881848461034b565b505050565b5b818110156103ac576103a1600082610375565b60018101905061038e565b5050565b601f8211156103f1576103c281610287565b6103cb8461029c565b810160208510156103da578190505b6103ee6103e68561029c565b83018261038d565b50505b505050565b600082821c905092915050565b6000610414600019846008026103f6565b1980831691505092915050565b600061042d8383610403565b9150826002028217905092915050565b610446826101ed565b67ffffffffffffffff81111561045f5761045e6101f8565b5b6104698254610256565b6104748282856103b0565b600060209050601f8311600181146104a75760008415610495578287015190505b61049f8582610421565b865550610507565b601f1984166104b586610287565b60005b828110156104dd578489015182556001820191506020850194506020810190506104b8565b868310156104fa57848901516104f6601f891682610403565b8355505b6001600288020188555050505b505050505050565b600073ffffffffffffffffffffffffffffffffffffffff82169050919050565b600061053a8261050f565b9050919050565b61054a8161052f565b82525050565b60006020820190506105656000830184610541565b92915050565b61265c8061057a6000396000f3fe608060405234801561001057600080fd5b50600436106101165760003560e01c80638da5cb5b116100a2578063b88d4fde11610071578063b88d4fde146102cd578063c87b56dd146102e9578063d0def52114610319578063e985e9c514610349578063f2fde38b1461037957610116565b80638da5cb5b1461025757806395d89b41146102755780639f181b5e14610293578063a22cb465146102b157610116565b806323b872dd116100e957806323b872dd146101b557806342842e0e146101d15780636352211e146101ed57806370a082311461021d578063715018a61461024d57610116565b806301ffc9a71461011b57806306fdde031461014b578063081812fc14610169578063095ea7b314610199575b600080fd5b61013560048036038101906101309190611ac8565b610395565b6040516101429190611b10565b60405180910390f35b6101536103f6565b6040516101609190611bbb565b60405180910390f35b610183600480360381019061017e9190611c13565b610488565b6040516101909190611c81565b60405180910390f35b6101b360048036038101906101ae9190611cc8565b6104a4565b005b6101cf60048036038101906101ca9190611d08565b6104ba565b005b6101eb60048036038101906101e69190611d08565b6105bc565b005b61020760048036038101906102029190611c13565b6105dc565b6040516102149190611c81565b60405180910390f35b61023760048036038101906102329190611d5b565b6105ee565b6040516102449190611d97565b60405180910390f35b6102556106a8565b005b61025f6106bc565b60405161026c9190611c81565b60405180910390f35b61027d6106e6565b60405161028a9190611bbb565b60405180910390f35b61029b610778565b6040516102a89190611d97565b60405180910390f35b6102cb60048036038101906102c69190611dde565b61077e565b005b6102e760048036038101906102e29190611f53565b610794565b005b61030360048036038101906102fe9190611c13565b6107b9565b6040516103109190611bbb565b60405180910390f35b610333600480360381019061032e9190612077565b6108cc565b6040516103409190611d97565b60405180910390f35b610363600480360381019061035e91906120d3565b610913565b6040516103709190611b10565b60405180910390f35b610393600480360381019061038e9190611d5b565b6109a7565b005b6000634906490660e01b7bffffffffffffffffffffffffffffffffffffffffffffffffffffffff1916827bffffffffffffffffffffffffffffffffffffffffffffffffffffffff191614806103ef57506103ee82610a2d565b5b9050919050565b60606000805461040590612142565b80601f016020809104026020016040519081016040528092919081815260200182805461043190612142565b801561047e5780601f106104535761010080835404028352916020019161047e565b820191906000526020600020905b81548152906001019060200180831161046157829003601f168201915b5050505050905090565b600061049382610b0f565b5061049d82610b97565b9050919050565b6104b682826104b1610bd4565b610bdc565b5050565b600073ffffffffffffffffffffffffffffffffffffffff168273ffffffffffffffffffffffffffffffffffffffff160361052c5760006040517f64a0ae920000000000000000000000000000000000000000000000000000000081526004016105239190611c81565b60405180910390fd5b6000610540838361053b610bd4565b610bee565b90508373ffffffffffffffffffffffffffffffffffffffff168173ffffffffffffffffffffffffffffffffffffffff16146105b6578382826040517f64283d7b0000000000000000000000000000000000000000000000000000000081526004016105ad93929190612173565b60405180910390fd5b50505050565b6105d783838360405180602001604052806000815250610794565b505050565b60006105e782610b0f565b9050919050565b60008073ffffffffffffffffffffffffffffffffffffffff168273ffffffffffffffffffffffffffffffffffffffff16036106615760006040517f89c62b640000000000000000000000000000000000000000000000000000000081526004016106589190611c81565b60405180910390fd5b600360008373ffffffffffffffffffffffffffffffffffffffff1673ffffffffffffffffffffffffffffffffffffffff168152602001908152602001600020549050919050565b6106b0610e08565b6106ba6000610e8f565b565b6000600760009054906101000a900473ffffffffffffffffffffffffffffffffffffffff16905090565b6060600180546106f590612142565b80601f016020809104026020016040519081016040528092919081815260200182805461072190612142565b801561076e5780601f106107435761010080835404028352916020019161076e565b820191906000526020600020905b81548152906001019060200180831161075157829003601f168201915b5050505050905090565b60085481565b610790610789610bd4565b8383610f55565b5050565b61079f8484846104ba565b6107b36107aa610bd4565b858585856110c4565b50505050565b60606107c482610b0f565b5060006006600084815260200190815260200160002080546107e590612142565b80601f016020809104026020016040519081016040528092919081815260200182805461081190612142565b801561085e5780601f106108335761010080835404028352916020019161085e565b820191906000526020600020905b81548152906001019060200180831161084157829003601f168201915b50505050509050600061086f611275565b905060008151036108845781925050506108c7565b6000825111156108b95780826040516020016108a19291906121e6565b604051602081830303815290604052925050506108c7565b6108c28461128c565b925050505b919050565b60006108d6610e08565b6001600860008282546108e99190612239565b925050819055506108fc836008546112f5565b610908600854836113ee565b600854905092915050565b6000600560008473ffffffffffffffffffffffffffffffffffffffff1673ffffffffffffffffffffffffffffffffffffffff16815260200190815260200160002060008373ffffffffffffffffffffffffffffffffffffffff1673ffffffffffffffffffffffffffffffffffffffff16815260200190815260200160002060009054906101000a900460ff16905092915050565b6109af610e08565b600073ffffffffffffffffffffffffffffffffffffffff168173ffffffffffffffffffffffffffffffffffffffff1603610a215760006040517f1e4fbdf7000000000000000000000000000000000000000000000000000000008152600401610a189190611c81565b60405180910390fd5b610a2a81610e8f565b50565b60007f80ac58cd000000000000000000000000000000000000000000000000000000007bffffffffffffffffffffffffffffffffffffffffffffffffffffffff1916827bffffffffffffffffffffffffffffffffffffffffffffffffffffffff19161480610af857507f5b5e139f000000000000000000000000000000000000000000000000000000007bffffffffffffffffffffffffffffffffffffffffffffffffffffffff1916827bffffffffffffffffffffffffffffffffffffffffffffffffffffffff1916145b80610b085750610b078261144a565b5b9050919050565b600080610b1b836114b4565b9050600073ffffffffffffffffffffffffffffffffffffffff168173ffffffffffffffffffffffffffffffffffffffff1603610b8e57826040517f7e273289000000000000000000000000000000000000000000000000000000008152600401610b859190611d97565b60405180910390fd5b80915050919050565b60006004600083815260200190815260200160002060009054906101000a900473ffffffffffffffffffffffffffffffffffffffff169050919050565b600033905090565b610be983838360016114f1565b505050565b600080610bfa846114b4565b9050600073ffffffffffffffffffffffffffffffffffffffff168373ffffffffffffffffffffffffffffffffffffffff1614610c3c57610c3b8184866116b6565b5b600073ffffffffffffffffffffffffffffffffffffffff168173ffffffffffffffffffffffffffffffffffffffff1614610ccd57610c7e6000856000806114f1565b6001600360008373ffffffffffffffffffffffffffffffffffffffff1673ffffffffffffffffffffffffffffffffffffffff168152602001908152602001600020600082825403925050819055505b600073ffffffffffffffffffffffffffffffffffffffff168573ffffffffffffffffffffffffffffffffffffffff1614610d50576001600360008773ffffffffffffffffffffffffffffffffffffffff1673ffffffffffffffffffffffffffffffffffffffff168152602001908152602001600020600082825401925050819055505b846002600086815260200190815260200160002060006101000a81548173ffffffffffffffffffffffffffffffffffffffff021916908373ffffffffffffffffffffffffffffffffffffffff160217905550838573ffffffffffffffffffffffffffffffffffffffff168273ffffffffffffffffffffffffffffffffffffffff167fddf252ad1be2c89b69c2b068fc378daa952ba7f163c4a11628f55a4df523b3ef60405160405180910390a4809150509392505050565b610e10610bd4565b73ffffffffffffffffffffffffffffffffffffffff16610e2e6106bc565b73ffffffffffffffffffffffffffffffffffffffff1614610e8d57610e51610bd4565b6040517f118cdaa7000000000000000000000000000000000000000000000000000000008152600401610e849190611c81565b60405180910390fd5b565b6000600760009054906101000a900473ffffffffffffffffffffffffffffffffffffffff16905081600760006101000a81548173ffffffffffffffffffffffffffffffffffffffff021916908373ffffffffffffffffffffffffffffffffffffffff1602179055508173ffffffffffffffffffffffffffffffffffffffff168173ffffffffffffffffffffffffffffffffffffffff167f8be0079c531659141344cd1fd0a4f28419497f9722a3daafe3b4186f6b6457e060405160405180910390a35050565b600073ffffffffffffffffffffffffffffffffffffffff168273ffffffffffffffffffffffffffffffffffffffff1603610fc657816040517f5b08ba18000000000000000000000000000000000000000000000000000000008152600401610fbd9190611c81565b60405180910390fd5b80600560008573ffffffffffffffffffffffffffffffffffffffff1673ffffffffffffffffffffffffffffffffffffffff16815260200190815260200160002060008473ffffffffffffffffffffffffffffffffffffffff1673ffffffffffffffffffffffffffffffffffffffff16815260200190815260200160002060006101000a81548160ff0219169083151502179055508173ffffffffffffffffffffffffffffffffffffffff168373ffffffffffffffffffffffffffffffffffffffff167f17307eab39ab6107e8899845ad3d59bd9653f200f220920489ca2b5937696c31836040516110b79190611b10565b60405180910390a3505050565b60008373ffffffffffffffffffffffffffffffffffffffff163b111561126e578273ffffffffffffffffffffffffffffffffffffffff1663150b7a02868685856040518563ffffffff1660e01b815260040161112394939291906122c2565b6020604051808303816000875af192505050801561115f57506040513d601f19601f8201168201806040525081019061115c9190612323565b60015b6111e3573d806000811461118f576040519150601f19603f3d011682016040523d82523d6000602084013e611194565b606091505b5060008151036111db57836040517f64a0ae920000000000000000000000000000000000000000000000000000000081526004016111d29190611c81565b60405180910390fd5b805181602001fd5b63150b7a0260e01b7bffffffffffffffffffffffffffffffffffffffffffffffffffffffff1916817bffffffffffffffffffffffffffffffffffffffffffffffffffffffff19161461126c57836040517f64a0ae920000000000000000000000000000000000000000000000000000000081526004016112639190611c81565b60405180910390fd5b505b5050505050565b606060405180602001604052806000815250905090565b606061129782610b0f565b5060006112a2611275565b905060008151116112c257604051806020016040528060008152506112ed565b806112cc8461177a565b6040516020016112dd9291906121e6565b6040516020818303038152906040525b915050919050565b600073ffffffffffffffffffffffffffffffffffffffff168273ffffffffffffffffffffffffffffffffffffffff16036113675760006040517f64a0ae9200000000000000000000000000000000000000000000000000000000815260040161135e9190611c81565b60405180910390fd5b600061137583836000610bee565b9050600073ffffffffffffffffffffffffffffffffffffffff168173ffffffffffffffffffffffffffffffffffffffff16146113e95760006040517f73c6ac6e0000000000000000000000000000000000000000000000000000000081526004016113e09190611c81565b60405180910390fd5b505050565b8060066000848152602001908152602001600020908161140e91906124fc565b507ff8e1a15aba9398e019f0b49df1a4fde98ee17ae345cb5f6b5e2c27f5033e8ce78260405161143e9190611d97565b60405180910390a15050565b60007f01ffc9a7000000000000000000000000000000000000000000000000000000007bffffffffffffffffffffffffffffffffffffffffffffffffffffffff1916827bffffffffffffffffffffffffffffffffffffffffffffffffffffffff1916149050919050565b60006002600083815260200190815260200160002060009054906101000a900473ffffffffffffffffffffffffffffffffffffffff169050919050565b808061152a5750600073ffffffffffffffffffffffffffffffffffffffff168273ffffffffffffffffffffffffffffffffffffffff1614155b1561165e57600061153a84610b0f565b9050600073ffffffffffffffffffffffffffffffffffffffff168373ffffffffffffffffffffffffffffffffffffffff16141580156115a557508273ffffffffffffffffffffffffffffffffffffffff168173ffffffffffffffffffffffffffffffffffffffff1614155b80156115b857506115b68184610913565b155b156115fa57826040517fa9fbf51f0000000000000000000000000000000000000000000000000000000081526004016115f19190611c81565b60405180910390fd5b811561165c57838573ffffffffffffffffffffffffffffffffffffffff168273ffffffffffffffffffffffffffffffffffffffff167f8c5be1e5ebec7d5bd14f71427d1e84f3dd0314c0f7b2291e5b200ac8c7c3b92560405160405180910390a45b505b836004600085815260200190815260200160002060006101000a81548173ffffffffffffffffffffffffffffffffffffffff021916908373ffffffffffffffffffffffffffffffffffffffff16021790555050505050565b6116c1838383611848565b61177557600073ffffffffffffffffffffffffffffffffffffffff168373ffffffffffffffffffffffffffffffffffffffff160361173657806040517f7e27328900000000000000000000000000000000000000000000000000000000815260040161172d9190611d97565b60405180910390fd5b81816040517f177e802f00000000000000000000000000000000000000000000000000000000815260040161176c9291906125ce565b60405180910390fd5b505050565b60606000600161178984611909565b01905060008167ffffffffffffffff8111156117a8576117a7611e28565b5b6040519080825280601f01601f1916602001820160405280156117da5781602001600182028036833780820191505090505b509050600082602001820190505b60011561183d578080600190039150507f3031323334353637383961626364656600000000000000000000000000000000600a86061a8153600a8581611831576118306125f7565b5b049450600085036117e8575b819350505050919050565b60008073ffffffffffffffffffffffffffffffffffffffff168373ffffffffffffffffffffffffffffffffffffffff161415801561190057508273ffffffffffffffffffffffffffffffffffffffff168473ffffffffffffffffffffffffffffffffffffffff1614806118c157506118c08484610913565b5b806118ff57508273ffffffffffffffffffffffffffffffffffffffff166118e783610b97565b73ffffffffffffffffffffffffffffffffffffffff16145b5b90509392505050565b600080600090507a184f03e93ff9f4daa797ed6e38ed64bf6a1f0100000000000000008310611967577a184f03e93ff9f4daa797ed6e38ed64bf6a1f010000000000000000838161195d5761195c6125f7565b5b0492506040810190505b6d04ee2d6d415b85acef810000000083106119a4576d04ee2d6d415b85acef8100000000838161199a576119996125f7565b5b0492506020810190505b662386f26fc1000083106119d357662386f26fc1000083816119c9576119c86125f7565b5b0492506010810190505b6305f5e10083106119fc576305f5e10083816119f2576119f16125f7565b5b0492506008810190505b6127108310611a21576127108381611a1757611a166125f7565b5b0492506004810190505b60648310611a445760648381611a3a57611a396125f7565b5b0492506002810190505b600a8310611a53576001810190505b80915050919050565b6000604051905090565b600080fd5b600080fd5b60007fffffffff0000000000000000000000000000000000000000000000000000000082169050919050565b611aa581611a70565b8114611ab057600080fd5b50565b600081359050611ac281611a9c565b92915050565b600060208284031215611ade57611add611a66565b5b6000611aec84828501611ab3565b91505092915050565b60008115159050919050565b611b0a81611af5565b82525050565b6000602082019050611b256000830184611b01565b92915050565b600081519050919050565b600082825260208201905092915050565b60005b83811015611b65578082015181840152602081019050611b4a565b60008484015250505050565b6000601f19601f8301169050919050565b6000611b8d82611b2b565b611b978185611b36565b9350611ba7818560208601611b47565b611bb081611b71565b840191505092915050565b60006020820190508181036000830152611bd58184611b82565b905092915050565b6000819050919050565b611bf081611bdd565b8114611bfb57600080fd5b50565b600081359050611c0d81611be7565b92915050565b600060208284031215611c2957611c28611a66565b5b6000611c3784828501611bfe565b91505092915050565b600073ffffffffffffffffffffffffffffffffffffffff82169050919050565b6000611c6b82611c40565b9050919050565b611c7b81611c60565b82525050565b6000602082019050611c966000830184611c72565b92915050565b611ca581611c60565b8114611cb057600080fd5b50565b600081359050611cc281611c9c565b92915050565b60008060408385031215611cdf57611cde611a66565b5b6000611ced85828601611cb3565b9250506020611cfe85828601611bfe565b9150509250929050565b600080600060608486031215611d2157611d20611a66565b5b6000611d2f86828701611cb3565b9350506020611d4086828701611cb3565b9250506040611d5186828701611bfe565b9150509250925092565b600060208284031215611d7157611d70611a66565b5b6000611d7f84828501611cb3565b91505092915050565b611d9181611bdd565b82525050565b6000602082019050611dac6000830184611d88565b92915050565b611dbb81611af5565b8114611dc657600080fd5b50565b600081359050611dd881611db2565b92915050565b60008060408385031215611df557611df4611a66565b5b6000611e0385828601611cb3565b9250506020611e1485828601611dc9565b9150509250929050565b600080fd5b600080fd5b7f4e487b7100000000000000000000000000000000000000000000000000000000600052604160045260246000fd5b611e6082611b71565b810181811067ffffffffffffffff82111715611e7f57611e7e611e28565b5b80604052505050565b6000611e92611a5c565b9050611e9e8282611e57565b919050565b600067ffffffffffffffff821115611ebe57611ebd611e28565b5b611ec782611b71565b9050602081019050919050565b82818337600083830152505050565b6000611ef6611ef184611ea3565b611e88565b905082815260208101848484011115611f1257611f11611e23565b5b611f1d848285611ed4565b509392505050565b600082601f830112611f3a57611f39611e1e565b5b8135611f4a848260208601611ee3565b91505092915050565b60008060008060808587031215611f6d57611f6c611a66565b5b6000611f7b87828801611cb3565b9450506020611f8c87828801611cb3565b9350506040611f9d87828801611bfe565b925050606085013567ffffffffffffffff811115611fbe57611fbd611a6b565b5b611fca87828801611f25565b91505092959194509250565b600067ffffffffffffffff821115611ff157611ff0611e28565b5b611ffa82611b71565b9050602081019050919050565b600061201a61201584611fd6565b611e88565b90508281526020810184848401111561203657612035611e23565b5b612041848285611ed4565b509392505050565b600082601f83011261205e5761205d611e1e565b5b813561206e848260208601612007565b91505092915050565b6000806040838503121561208e5761208d611a66565b5b600061209c85828601611cb3565b925050602083013567ffffffffffffffff8111156120bd576120bc611a6b565b5b6120c985828601612049565b9150509250929050565b600080604083850312156120ea576120e9611a66565b5b60006120f885828601611cb3565b925050602061210985828601611cb3565b9150509250929050565b7f4e487b7100000000000000000000000000000000000000000000000000000000600052602260045260246000fd5b6000600282049050600182168061215a57607f821691505b60208210810361216d5761216c612113565b5b50919050565b60006060820190506121886000830186611c72565b6121956020830185611d88565b6121a26040830184611c72565b949350505050565b600081905092915050565b60006121c082611b2b565b6121ca81856121aa565b93506121da818560208601611b47565b80840191505092915050565b60006121f282856121b5565b91506121fe82846121b5565b91508190509392505050565b7f4e487b7100000000000000000000000000000000000000000000000000000000600052601160045260246000fd5b600061224482611bdd565b915061224f83611bdd565b92508282019050808211156122675761226661220a565b5b92915050565b600081519050919050565b600082825260208201905092915050565b60006122948261226d565b61229e8185612278565b93506122ae818560208601611b47565b6122b781611b71565b840191505092915050565b60006080820190506122d76000830187611c72565b6122e46020830186611c72565b6122f16040830185611d88565b81810360608301526123038184612289565b905095945050505050565b60008151905061231d81611a9c565b92915050565b60006020828403121561233957612338611a66565b5b60006123478482850161230e565b91505092915050565b60008190508160005260206000209050919050565b60006020601f8301049050919050565b600082821b905092915050565b6000600883026123b27fffffffffffffffffffffffffffffffffffffffffffffffffffffffffffffffff82612375565b6123bc8683612375565b95508019841693508086168417925050509392505050565b6000819050919050565b60006123f96123f46123ef84611bdd565b6123d4565b611bdd565b9050919050565b6000819050919050565b612413836123de565b61242761241f82612400565b848454612382565b825550505050565b600090565b61243c61242f565b61244781848461240a565b505050565b5b8181101561246b57612460600082612434565b60018101905061244d565b5050565b601f8211156124b05761248181612350565b61248a84612365565b81016020851015612499578190505b6124ad6124a585612365565b83018261244c565b50505b505050565b600082821c905092915050565b60006124d3600019846008026124b5565b1980831691505092915050565b60006124ec83836124c2565b9150826002028217905092915050565b61250582611b2b565b67ffffffffffffffff81111561251e5761251d611e28565b5b6125288254612142565b61253382828561246f565b600060209050601f8311600181146125665760008415612554578287015190505b61255e85826124e0565b8655506125c6565b601f19841661257486612350565b60005b8281101561259c57848901518255600182019150602085019450602081019050612577565b868310156125b957848901516125b5601f8916826124c2565b8355505b6001600288020188555050505b505050505050565b60006040820190506125e36000830185611c72565b6125f06020830184611d88565b9392505050565b7f4e487b7100000000000000000000000000000000000000000000000000000000600052601260045260246000fdfea26469706673582212207cdf2a83ac92e6f6806394bed5d3161f723ff0020978083de814c7380d4587b364736f6c634300081c0033",
  "linkReferences": {},
  "deployedLinkReferences": {}
}